:080E9F00FEFDFBF7EFDFBF7F52
:100E05000834101010101010101011213F065B4F00
:100E1500666D7D077F6F777C395E797100013E00D5
:070E2500013D6302320000F1
:100C3E008F34850E35ED640F4C7038E50E24FE6052
:100C4E001004705CE50975F00A8485F03BE50980B7
:100C5E0049850B38E50C75F06484F537E50C75F0B5
:100C6E000A8475F00A8485F036E50C75F00A8485E1
:100C7E00F03522ED640A4C7027E50E24FE60100458
:100C8E00701EE50A75F00A8485F03BE50A800BE5D7
:100C9E000D75F00A8485F03BE50D75F00A84F53A82
:010CAE002223
:100E4B00AD071FED600FE4FEEEC394FF748094803A
:050E5B0050EE0E80F3D3
:010E6000226F
:03000B00020BB82D
:0F0BB800C0E0C083C082C0D075D000C000C007AD
:100BC700753FFEC28C758CFE758A0C0533E5337054
:100BD700020532B4580AE532B402056311FF8009F1
:100BE700E533453270037511FFE518F4600EE53EF5
:100BF700B518092434F8E65511FF80077434253EEB
:100C0700F8E6FFD293D29474212FF8E6F580C294C8
:100C1700D295E53E900E9F93F580C295C293053E0F
:0A0C2700E53E64087002F53ED28C31
:0D0C3100D007D000D0D0D082D083D0E032E8
:10080000D2AFD2A9D2ABD2B9C2BB758CFE758A0C5D
:10081000D28CD28E120D167D0F7C00E4FF120C3E9E
:10082000120B2E8E428F432000EAE543640C4542B2
:10083000701E300010300403120AA3C2007D0F7C2A
:1008400000E4FF8008D2007D0F7C007F05120C3E83
:10085000E543640D45427029300313E50E24FE6024
:100860000804701D750E028018750E01801375182E
:100870000174342518F876017D0F7C007F05120C79
:100880003EE543640E4542708B30030302093BE5AD
:1008900000640F4500600675000075000FE54364B5
:1008A0006E4542702AAF0EFEEF6401700FD3E5185B
:1008B000940674809480400415188013EF64024EEF
:1008C000700DD3E51894047480948040021518E5E7
:1008D00043647845426003020814AF0EFEEF6401E2
:1008E0007028AD18FCC3ED9406748094805002808B
:1008F0000EE53A640570028006ED64074C700675DB
:1009000018060208140518020814EF64024E60036A
:10091000020814AF18FEC3EF940474809480500250
:10092000800EE538640170028006EF64074E7006A1
:100930007518040208140518020814D203020814DA
:03001B0002094097
:10094000C0E0C0F0C083C082C0D075D000C000C07D
:0D09500001C002C003C004C005C006C007FE
:10095D00C28EE50E6401707AE513F58D85148B302A
:10096D00011FAF127E00C3EF94F074809480500489
:10097D007410801AEF64F04E701F7512FFC2018063
:10098D0018D3E512941074809480400874F02512E9
:10099D00F5128005751200D201AF127E00AC15ADB7
:1009AD0016120CAF7C007D32120CC18F17C20212D1
:1009BD000E757F90120DD2120E842002F0E4FF12FC
:1009CD000DD2120E842002E5AF17120DD2120E8435
:1009DD00801BE50E64027015B290309009E513F599
:0F09ED008D85148B8007E515F58D85168BD28EC1
:1009FC00D007D006D005D004D003D002D001D0004F
:0B0A0C00D0D0D082D083D0F0D0E032F8
:0F0E7500D2B6D2B4120EA7C2B4120EADC2B622BC
:100E6100C2B6C2B4120EADD2B6120EADD2B4120ECB
:040E7100A7C2B4223E
:100E2D00C2B4D2B6120EAD30B40FC3E54694FF7402
:0E0E3D008094805004054680EEC2B6020EADD1
:0C0E9300D2B4D2B6120EADC2B6C2B42268
:0F0E8400D2B4D2B6C2D530B402D2D5C2B6002293
:100DD2008F48E4F547C3E54794087480948050191E
:100DE200E54825E0F548C2B6120EAD92B4120EAD3A
:100DF200D2B6120EAD054780DCC2B6120EADD2B429
:030E0200020EAD30
:100D9D00C2B6120EADD2B4E4F546C3E5469408745E
:100DAD00809480501AD2B6120EADE54725E0FFA211
:100DBD00B4E4334FF547C2B6120EAD054680DB12D3
:040DCD000EADAF4771
:010DD10022FF
:050EAD0000000000221E
:060EA70000000000002223
:100AA300AF0E7E00EF6401701D74068509F084C4E7
:100AB300135407640AFDC3E49DF514E49400F5138D
:100AC300751500850A16EF64024E705EAF0BFE7C4F
:100AD300037DE8120CAF7C00EF250CFFEC3EAB0767
:100AE300FA7E007F04AD03FC120CC1AD0D7C001235
:100AF3000CAFEF640AF5828E83AC02AD037E007FF8
:100B030004120CC1C37464950DFDE49400FC120C33
:100B1300AFEF640AFFC3E49582F514E49583F513FC
:0A0B2300C3740A9FF516E49EF51551
:010B2D0022A5
:100D1600C2D5120E757F90120DD2120E8420D5F018
:100D2600E4FF120DD2120E8420D5E5120D9D8F44DC
:100D3600120E2DE5446455701F754501C3E54594B3
:100D460008748094805014120D9D74082545F8A6E9
:0B0D560007120E84054580E4120D62B8
:010D6100226F
:100D6200C2D5120E757F90120DD2120E8420D5F0CC
:100D7200E4FF120DD2120E8420D5E5E4F546C3E558
:100D820046940874809480501174082546F8E6FF52
:0A0D9200120DD2120E84054680E413
:010D9C002234
:100B2E0075A0F0AFA0EF64F060597F0A120E4BAFC4
:100B3E00A0EF64F0604DAFA0EF2490601B24C06066
:100B4E001224E0600924F07012E4F545800D75451D
:100B5E00018008754502800375450375A00F7F0A55
:100B6E00120E4BAFA0EF24F9601324FC600B24FE91
:100B7E00600314800E7404800674088002740C25C1
:100B8E0045F545E54524F7600F14601114601324F4
:100B9E0003701275456E800D754508800875450900
:090BAE008003754578AF457E0017
:010BB700221B
:03000000020A17DA
:0C0A1700787FE4F6D8FD758148020A5E85
:100A2300020800E493A3F8E493A34003F68001F2E1
:100A330008DFF48029E493A3F85407240CC8C333D4
:100A4300C4540F4420C8834004F456800146F6DFA3
:100A5300E4800B0102040810204080900E05E47E20
:100A6300019360BCA3FF543F30E509541FFEE49398
:100A7300A360010ECF54C025E060A840B8E493A35F
:100A8300FAE493A3F8E493A3C8C582C8CAC583CA8A
:100A9300F0A3C8C582C8CAC583CADFE9DEE780BE42
:010E2C0000C5
:100CAF00EF8DF0A4A8F0CF8CF0A428CE8DF0A42E59
:020CBF00FE2213
:100CC100BC000BBE0029EF8DF084FFADF022E4CC17
:100CD100F875F008EF2FFFEE33FEEC33FCEE9DECE0
:100CE100984005FCEE9DFE0FD5F0E9E4CEFD22ED26
:100CF100F8F5F0EE8420D21CFEADF075F008EF2F70
:100D0100FFED33FD4007985006D5F0F222C398FD60
:050D11000FD5F0EA22FD
:00000001FF
