:08000300FEFDFBF7EFDFBF7FFC
:10096D000868101010101010101012523F065B4F37
:10097D00666D7D077F6F777C395E797100400172FE
:0B098D00000171630167FF02640000BD
:10063A008D668F68AF667E00EF640F704A756A0F29
:10064A00E56924FE601C0460030206D6756B117509
:10065A006C11756D11E51475F00A8485F06FE51457
:10066A008064756B1185166CE51775F06484F56DF9
:10067A00E51775F00A8475F00A8485F06EE517753A
:10068A00F00A8485F06F22EF640A4E703FE5192460
:10069A00FE601C047036756A0A756B11756C1175EB
:1006AA006D11E51575F00A8485F06FE515801775EB
:1006BA006A0D756B11756C11756D11E51875F00A77
:0D06CA008485F06FE51875F00A84F56E2246
:100A2A00AD071FED600FE4FEEEC394FF748094805F
:050A3A0050EE0E80F3F8
:010A3F002294
:03000B000207F0F9
:0F07F000C0E0C083C082C0D075D000C000C00779
:1007FF00C28C758CFE758A0CC3E5659446E56494CE
:10080F000040097564007565006367FF74682572A1
:10081F00F8E6FFD293300010E51EB5720B74522F1D
:10082F00F8E65567F580800774522FF8E6F580D209
:10083F0094C294E57290000393F580D295C295C24D
:10084F00930572C3E57294087480948040037572A7
:0B085F00000565E56570020564D28CA1
:0D086A00D007D000D0D0D082D083D0E032B3
:0B099800091355193200323201000033
:10001E00D2AFD2A9D2AB758911758CFE758A0CD26E
:10002E008CD28E1208CE12041C8519697D0F7C00AD
:10003E00E4FF12063A75A0F07F05120A2A85A00A7F
:10004E0075A00F7F05120A2AAFA0EF420AE50AF447
:10005E007003020122AFA0EF640F70F9E50A1207D8
:10006E003E011A7700FA7B00DA7D00BA7E0112B7E4
:10007E0000F2BB00D2BD00B2BE010AD700EADB001F
:10008E00CADD00AADE0102E700E2EB00C2ED00A32A
:10009E00EE00000128E4F550F551807E7550007594
:1000AE0051018076755000755102806E7550007545
:1000BE0051038066755000755104805E7550007551
:1000CE0051058056755000755106804E755000755D
:1000DE005107804675500075510A803E7550007567
:1000EE0051088036755000755109802E7550007577
:1000FE005114802675500075510C801E7550007578
:10010E00510D801675500075510E800E755000758C
:10011E00510F80067550007551FF200003020286B4
:10012E00E551640C45507026C20030040FC204C263
:10013E00AF12092512041CD2AF751EFF8519697DF9
:10014E000F7C00E4FF12063A7550007551FFE55121
:10015E00640D4550702A300310E51924FE60080422
:10016E00700F756902800A8005D203751E017569CC
:10017E00017D0F7C007F0512063A7550007551FF08
:10018E00E551640E45507023751E02200315E56A75
:10019E00640F60047D0F80027D0A7C007F051206CD
:1001AE003A8002C2037550007551FFE551640A454D
:1001BE00507031200328E56A640F7015E5696402FA
:1001CE00700FD3E51E9404748094804011151E8028
:1001DE000DD3E51E9406748094804002151E755052
:1001EE00007551FFE55164144550705520034CAF16
:1001FE006AFEEF640F701EE56964027018D3E51E87
:10020E0094047480948050028006E56C6401702B17
:10021E00751E048026D3E51E9406748094805002C9
:10022E008012E51964017011EF640A4E700BE56ED1
:10023E0064057005751E068002051E755000755109
:10024E00FFE551640F45507007D204120877801FE6
:10025E00D3E5519409E55094004003020043C3E5F1
:10026E005094005003020043AF51AE5012032A7552
:10027E0050007551FF020043751EFFE551640C4599
:10028E00507018D2008519697D0FFC7F0512063A51
:10029E00D203751E017550007551FFE551640D4571
:1002AE0050701F0569C3E569940374809480400300
:1002BE007569017D0F7C00E4FF12063A75500075DA
:1002CE0051FFE551640E45507019E56A640F6004E4
:1002DE007D0F80027D0A7C00E4FF12063A75500005
:1002EE007551FFE551640F45506003020043E56907
:1002FE006519601FE51964017003120A40856919BA
:10030E00C2AF1209257D0F7C00E4FF12063A1204DB
:0C031E001CD2AF7550007551FF02004367
:03001B000204D804
:1004D800C0E0C0F0C083C082C0D075D000C000C0EA
:1004E80001C002C003C004C005C006C007C28EE533
:1004F8001964017054E510F58D85118B300116D300
:10050800E51C94EF74809480500474108014C20128
:10051800751CFF8018C3E51C9411748094804008F2
:1005280074F0251CF51C8005D201751C00AF1C7EDB
:1005380000AC11AD121206D77C007D321206E98F8D
:100548001D1209D9120A63801BE51964027015B2DD
:1005580090309009E510F58D85118B8007E511F530
:100568008D85128BD28ED007D006D005D004D0034B
:10057800D002D001D000D0D0D082D083D0F0D0E04B
:010588003240
:10041C00E5196401705BF50B85140CAC0BAD0CFE8F
:10042C007F061206E9EF7805CEC313CE13D8F98EEA
:10043C002F640AF530C3E49530F511E4952FF510CF
:10044C00751100851512E4F51CF51DC2D5120A5460
:10045C007F901209D9120A6320D5F07F401209D976
:10046C00120A6320D5E57F911209D9120A6320D5AF
:10047C00DAE51964027054AF16FE7C037DE81206AF
:10048C00D77C00EF2517F50CEC3EF50BFCAD0C7E84
:10049C00277F101206E9AD187C001206D7AB07AA0D
:1004AC0006AC0BAD0C7E277F101206E9C374649565
:1004BC0018FDE49400FC1206D7C3E49BF511E49AF2
:0B04CC00F510C3E49FF512E49EF5114B
:0104D7002202
:10087700E56A640F7027E5696401700BE56E75F032
:100887000AA4256FF51422E56E75F00AA4FFE56D3D
:1008970075F064A42F256F856C16F51722E569643A
:1008A700017011E56E75F00AA4256FFFE56925E073
:1008B7002413800FE56E75F00AA4256FFFE56925FF
:0608C700E02414F8A6076E
:0108CD002208
:10032A00C3E51E940474809480500302041BE5669E
:10033A00640F70047D0180027D00E5696402700427
:10034A007C0180027C00EC5D6041E51E6404702E35
:10035A00EF64014E701F7468251EF876017D05ED65
:10036A00C3940874809480400302041B74682DF8B7
:10037A00E4F60D80EAEF4E600302041B8041E56C4F
:10038A00600302041B756C10020414E51E640670F7
:10039A0054E566640A70047D0180027D00E51964F3
:1003AA000270047C0180027C00EC5D6014C3EF944F
:1003BA0002EE9400405BD3EF9407EE940050528013
:1003CA0049C3EF9401EE9400400AEF9405EE9400BD
:1003DA0050028036EF64054E70377468251EF8A601
:1003EA0007E4F56F22E566640A70047D0180027DE8
:1003FA0000E519640170047C0180027C00EC5D60F8
:10040A0009E56E64057003F56F227468251EF8A667
:01041A0007DA
:01041B0022BE
:1008CE00C2D5120A547FA01209D9120A6320D5F09C
:1008DE00E4FF1209D9120A6320D5E51209A48F0B81
:1008EE00120A0CE50B64557027751355750C01C370
:1008FE00E50C9408748094805011120A0C1209A40D
:10090E007413250CF8A607050C80E412000E800364
:06091E00120925120A4037
:0109240022B0
:10092500C2D5120A547FA01209D9120A6320D5F044
:10093500E4FF1209D9120A6320D5E57FA11209D96E
:10094500120A6320D5DAE4F50DC3E50D9408748029
:10095500948050117413250DF8E6FF1209D9120A77
:0809650063050D80E4020A4065
:1005890075A0F07F05120A2A85A02175A00F7F05A5
:10059900120A2AAFA0EF4221E521F47003020637BF
:1005A900AFA0EF640F70F9E52112073E0634770614
:1005B900207B060C7D05F87E062FB7061BBB0607B8
:1005C900BD05F3BE062AD70616DB0602DD05EEDEFB
:1005D9000625E70611EB05FDED05E9EE00000637F6
:1005E900E4F52280497522018044752202803F7515
:1005F9002203803A752204803575220580307522E0
:1006090006802B752207802675220A80217522080B
:10061900801C7522098017752214801275220C809E
:100629000D75220D800875220E800375220FAF22E9
:01063900229E
:0300000002076490
:0C076400787FE4F6D8FD7581720207ABC7
:0F0A5400D2B6D2B4120A72C2B4120A78C2B62253
:100A4000C2B6C2B4120A78D2B6120A78D2B4120A66
:040A500072C2B42298
:100A0C00C2B4D2B6120A7830B40FC3E50D94FF7499
:0E0A1C008094805004050D80EEC2B6020A7868
:0C000E00D2B4D2B6120A78C2B6C2B42234
:0F0A6300D2B4D2B6C2D530B402D2D5C2B60022B8
:1009D9008F0FE4F50EC3E50E9408748094805019C6
:1009E900E50F25E0F50FC2B6120A7892B4120A781B
:1009F900D2B6120A78050E80DCC2B6120A78D2B4D1
:030A0900020A7866
:1009A400C2B6120A78D2B4E4F50DC3E50D94087406
:1009B400809480501AD2B6120A78E50E25E0FFA280
:1009C400B4E4334FF50EC2B6120A78050D80DB127B
:0409D4000A78AF0EE0
:0109D80022FC
:050A7800000000002257
:060A72000000000000225C
:1007700002001EE493A3F8E493A34003F68001F281
:1007800008DFF48029E493A3F85407240CC8C3338A
:10079000C4540F4420C8834004F456800146F6DF59
:1007A000E4800B010204081020408090096DE47E73
:1007B000019360BCA3FF543F30E509541FFEE4934E
:1007C000A360010ECF54C025E060A840B8E493A315
:1007D000FAE493A3F8E493A3C8C582C8CAC583CA40
:1007E000F0A3C8C582C8CAC583CADFE9DEE780BEF8
:0109A3000053
:1006D700EF8DF0A4A8F0CF8CF0A428CE8DF0A42E37
:0206E700FE22F1
:1006E900BC000BBE0029EF8DF084FFADF022E4CCF5
:1006F900F875F008EF2FFFEE33FEEC33FCEE9DECBE
:10070900984005FCEE9DFE0FD5F0E9E4CEFD22ED03
:10071900F8F5F0EE8420D21CFEADF075F008EF2F4D
:10072900FFED33FD4007985006D5F0F222C398FD3E
:050739000FD5F0EA22DB
:10073E00D083D082F8E4937012740193700DA3A34A
:10074E0093F8740193F5828883E47374029368605E
:06075E00EFA3A3A380DF5E
:00000001FF
