:08000300FEFDFBF7EFDFBF7FFC
:1008A8000836101010101010101011213F065B4F61
:1008B800666D7D077F6F777C395E79710001400036
:0708C800013F630232000052
:1004B2008D348F36AF347E00EF640F704A75380F7B
:1004C200E50E24FE601C04600302054B75391075AD
:1004D2003A10753B10E50975F00A8485F03DE5098F
:1004E2008061753910850B3AE50C75F06484F53B33
:1004F200E50C75F00A8475F00A8485F03CE50C750C
:10050200F00A8485F03D22EF640A4E703C75380A89
:10051200E50E24FE6019047030753910753A1075B5
:100522003B10E50A75F00A8485F03DE50A801475F2
:100532003910753A10753B10E50D75F00A8485F097
:0A0542003DE50D75F00A84F53C223A
:10092C00AD071FED600FE4FEEEC394FF748094805E
:05093C0050EE0E80F3F7
:010941002293
:03000B0002054C9F
:0F054C00C0E0C083C082C0D075D000C000C0071F
:10055B007541FEC28C758CFE758A0C7535FFE533C3
:10056B00643C453270096335FFF532F5338009E59C
:10057B0033453270037535FF74362540F8E6FFD2EC
:10058B0093D294300010E517B5400B74212FF8E689
:10059B005535F580800774212FF8E6F580C294D28B
:1005AB0095E54090000393F580C295C2930540C337
:1005BB00E54094087480948040037540000533E552
:0705CB003370020532D28CEF
:0D05D200D007D000D0D0D082D083D0E0324E
:0B08CF0009085532140032320200000C
:10001E00D2AFD2A9D2ABD2B9C2BB758CFE758A0C47
:10002E00D28CD28E12077B1206F87D0F7C00E4FF75
:10003E001204B2850E37C2001203FF8E448F452084
:10004E000003020194E545640C4544701CC2003067
:10005E00040BC20412082E1206F8751763850E37AC
:10006E007D0F7C00E4FF1204B2E545640D4544703B
:10007E003030031CE50E24FE6008047008750E0275
:10008E008003750E017D0F7C007F051204B280087F
:10009E00D2037517017537017D0F7C007F051204A1
:1000AE00B2E545640E4544701D751702200315E533
:1000BE0038640F60047D0F80027D0A7C007F05127C
:1000CE0004B28002C203E545646E4544702B2003E2
:1000DE0028E538640F7015E5376402700FD3E51705
:1000EE0094047480948040111517800DD3E51794F5
:1000FE00067480948040021517E545647845447077
:10010E004F20034CAF38FEEF640F701EE5376402CC
:10011E007018D3E51794047480948050028006E51D
:10012E003A6401702B7517048026D3E51794067474
:10013E0080948050028012E50E64017011EF640A03
:10014E004E700BE53C6405700575170680020517A9
:10015E00E545640F45447008D2041207D8020046E4
:10016E00D3E5459409E5446480948040030200463B
:10017E00C3E544648094805003020046AF45AE440C
:10018E00120226020046300003020046E545640CCA
:10019E0045447012D200850E377D0FFC7F05120488
:1001AE00B2D203751701E545640D45447019053744
:1001BE00C3E53794037480948040037537017D0F37
:1001CE007C00E4FF1204B2E545640E45447013E56D
:1001DE0038640F60047D0F80027D0A7C00E4FF12FC
:1001EE0004B2E545640F45446003020046E53765F9
:1001FE000E7003020046E50E64017003120942857B
:10020E00370EC2AF12082E7D0F7C00E4FF1204B22F
:08021E001206F8D2AF020046FF
:03001B0002031AC3
:10031A00C0E0C0F0C083C082C0D075D000C000C0A9
:0D032A0001C002C003C004C005C006C0072A
:10033700C28EE50E640160030203C7E512F58D85E1
:10034700138B30011FAF117E00C3EF94F0748094BC
:100357008050047410801AEF64F04E701F7511FFFF
:10036700C2018018D3E511941074809480400874FA
:10037700F02511F5118005751100D201AF117E002E
:10038700AC14AD151205DF7C007D321205F18F1616
:10039700C2021209567F901208DB1209652002F08B
:1003A700E4FF1208DB1209652002E57F911208DBE2
:1003B7001209652002DAAF161208DB120965801BE5
:1003C700E50E64027015B290309009E512F58D853F
:0D03D700138B8007E514F58D85158BD28EF4
:1003E400D007D006D005D004D003D002D001D0006D
:0B03F400D0D0D082D083D0F0D0E03217
:1006F800AF0E7E00EF6401701D74068509F084C496
:10070800135407640AFDC3E49DF513E49400F5123D
:10071800751400850A15EF64024E7056AF0BFE7C07
:10072800037DE81205DF7C00EF250CFFEC3EAB07EC
:10073800FA7E277F10AD03FC1205F1AD0D7C001287
:1007480005DF8F828E83AC02AD037E277F101205F2
:10075800F1C37464950DFDE49400FC1205DFC3E455
:100768009582F513E49583F512C3E49FF515E49E8D
:02077800F51476
:01077A00225C
:1007D800AF0E7E00EF6401700BE53C75F00AA425AE
:1007E8003DF50922EF64024E7029E534640F702349
:1007F800E53B75F064A4FFE53A75F0E8A42FFFE542
:100808003C75F00AA42F253DFB7A00EAF50FAF03EB
:100818008F1022E53C75F00AA4253DFFE53725E059
:050828002408F8A607FA
:01082D0022A8
:10022600C3E5179404748094805003020319E534DF
:10023600640F70047D0180027D00E50E6402700487
:100246007C0180027C00EC5D6043E517640470303D
:10025600EF64014E7021AD0774362517F8A6057DAB
:1002660005EDC39408748094804003020319743624
:100276002DF8E4F60D80EAEF4E6003020319804183
:10028600E53A6003020319753A10020312E5176492
:10029600067054E534640A70047D0180027D00E531
:1002A6000E640270047C0180027C00EC5D6014C365
:1002B600EF9402EE9400405BD3EF9407EE94005067
:1002C600528049C3EF9401EE9400400AEF9405EE84
:1002D600940050028036EF64054E70377436251749
:1002E600F8A607E4F53D22E534640A70047D018032
:1002F600027D00E50E640170047C0180027C00EC46
:100306005D6009E53C64057003F53D2274362517EA
:03031600F8A6073F
:0103190022C1
:10077B00C2D51209567FA01208DB12096520D5F0ED
:10078B00E4FF1208DB12096520D5E51208738F46CA
:10079B0012090EE54664557027750855754701C358
:1007AB00E547940874809480501112090E12087357
:1007BB0074082547F8A607054780E412000E800948
:0C07CB0012000E12094212082E12094200
:0107D70022FF
:10082E00C2D51209567FA01208DB12096520D5F039
:10083E00E4FF1208DB12096520D5E57FA11208DB63
:10084E00120965E4F548C3E5489408748094805015
:10085E001174082548F8E6FF1208DB1209650548F1
:05086E0080E4020942D4
:1003FF0075A0F07F0512092C85A04675A00F7F050B
:10040F0012092CAFA0EF4246E546F470030204AD8B
:10041F00AFA0EF640F70F9E54612064604AA770401
:10042F00967B04827D046E7E04A5B70491BB047D88
:10043F00BD0469BE04A0D7048CDB0478DD0464DE40
:10044F00049BE70487EB0473ED045FEE000004AD3B
:10045F00E4F54780497547018044754702803F7531
:10046F004703803A754704803575470580307547D7
:10047F0006802B754707802675476E8021754708C4
:10048F00801C7547098017754778801275470C8057
:10049F000D75470D800875470E800375470FAF47E1
:0204AF007E00CD
:0104B1002228
:0300000002066C89
:0C066C00787FE4F6D8FD75814A0206B3E1
:0F095600D2B6D2B4120974C2B412097AC2B62250
:10094200C2B6C2B412097AD2B612097AD2B4120964
:0409520074C2B42295
:10090E00C2B4D2B612097A30B40FC3E54894FF745C
:0E091E008094805004054880EEC2B602097A2B
:0C000E00D2B4D2B612097AC2B6C2B42233
:0F096500D2B4D2B6C2D530B402D2D5C2B60022B7
:1008DB008F4AE4F549C3E549940874809480501914
:1008EB00E54A25E0F54AC2B612097A92B412097AA2
:1008FB00D2B612097A054980DCC2B612097AD2B493
:03090B0002097A64
:10087300C2B612097AD2B4E4F548C3E548940874C1
:10088300809480501AD2B612097AE54925E0FFA276
:10089300B4E4334FF549C2B612097A054880DB1236
:0408A300097AAF49D6
:0108A700222E
:05097A00000000002256
:060974000000000000225B
:1006780002001EE493A3F8E493A34003F68001F27A
:1006880008DFF48029E493A3F85407240CC8C33383
:10069800C4540F4420C8834004F456800146F6DF52
:1006A800E4800B01020408102040809008A8E47E32
:1006B800019360BCA3FF543F30E509541FFEE49347
:1006C800A360010ECF54C025E060A840B8E493A30E
:1006D800FAE493A3F8E493A3C8C582C8CAC583CA39
:1006E800F0A3C8C582C8CAC583CADFE9DEE780BEF1
:0108DA00001D
:1005DF00EF8DF0A4A8F0CF8CF0A428CE8DF0A42E30
:0205EF00FE22EA
:1005F100BC000BBE0029EF8DF084FFADF022E4CCEE
:10060100F875F008EF2FFFEE33FEEC33FCEE9DECB6
:10061100984005FCEE9DFE0FD5F0E9E4CEFD22EDFC
:10062100F8F5F0EE8420D21CFEADF075F008EF2F46
:10063100FFED33FD4007985006D5F0F222C398FD37
:050641000FD5F0EA22D4
:10064600D083D082F8E4937012740193700DA3A343
:1006560093F8740193F5828883E473740293686057
:06066600EFA3A3A380DF57
:00000001FF
