:08101400FEFDFBF7EFDFBF7FDB
:100F7A000834101010101010101011213F065B4F8A
:100F8A00666D7D077F6F777C395E797100013E005F
:070F9A00013D63023200007B
:100D5D008F34850E35ED640F4C7038E50E24FE6032
:100D6D001004705CE50975F00A8485F03BE5098097
:100D7D0049850B38E50C75F06484F537E50C75F095
:100D8D000A8475F00A8485F036E50C75F00A8485C1
:100D9D00F03522ED640A4C7027E50E24FE60100438
:100DAD00701EE50A75F00A8485F03BE50A800BE5B7
:100DBD000D75F00A8485F03BE50D75F00A84F53A62
:010DCD002203
:100FC000AD071FED600FE4FEEEC394FF74809480C4
:050FD00050EE0E80F35D
:010FD50022F9
:03000B00020CD70D
:0F0CD700C0E0C083C082C0D075D000C000C0078D
:100CE600753FFEC28C758CFE758A0C0533E5337034
:100CF600020532B4580AE532B402056311FF8009D1
:100D0600E533453270037511FFE518F4600EE53ED4
:100D1600B518092434F8E65511FF80077434253ECA
:100D2600F8E6FFD293D29474212FF8E6F580C294A8
:100D3600D295E53E90101493F580C295C293053E78
:0A0D4600E53E64087002F53ED28C11
:0D0D5000D007D000D0D0D082D083D0E032C8
:10080000D2AFD2A9D2ABD2B9C2BB758CFE758A0C5D
:10081000D28CD28E120E8B7D0F7C00E4FF120D5D08
:10082000120C4D8E428F43E543640C4542702030DC
:100830000012300405120BC2C204C2007D0F7C00FE
:10084000E4FF8008D2007D0F7C007F05120D5DE57E
:1008500043640D45427029300313E50E24FE600801
:1008600004701D750E028018750E01801375180135
:1008700074342518F876017D0F7C007F05120D5D1C
:10088000E543640E4542708C200003020966E500D2
:10089000640F4500600875000075000F8006750044
:1008A0000075000AE543646E4542702AAF0EFEEF04
:1008B0006401700FD3E51894067480948040041589
:1008C000188013EF64024E700DD3E5189404748001
:1008D000948040021518E543647845427058AF0E85
:1008E000FEEF64017026AD18FCC3ED94067480948D
:1008F000805002800EE53A640570028006ED6407C0
:100900004C7005751806802E0518802AEF64024E7B
:100910007024AF18FEC3EF9404748094805002805A
:100920000EE538640170028006EF64074E700575AD
:10093000180480020518C3E542648094804014D3F3
:10094000E5439408E542648094805007AF43AE428B
:1009500012096BE543641045426003020814D20497
:0B096000120E35020814D20002081429
:03001B00020A5F77
:100A5F00C0E0C0F0C083C082C0D075D000C000C05D
:0D0A6F0001C002C003C004C005C006C007DE
:100A7C00C28EE50E6401707AE513F58D85148B300A
:100A8C00011FAF127E00C3EF94F074809480500469
:100A9C007410801AEF64F04E701F7512FFC2018043
:100AAC0018D3E512941074809480400874F02512C9
:100ABC00F5128005751200D201AF127E00AC15AD97
:100ACC0016120DCE7C007D32120DE08F17C2021271
:100ADC000FEA7F90120F47120FF92002F0E4FF1279
:100AEC000F47120FF92002E5AF17120F47120FF93B
:100AFC00801BE50E64027015B290309009E513F579
:0F0B0C008D85148B8007E515F58D85168BD28EA0
:100B1B00D007D006D005D004D003D002D001D0002E
:0B0B2B00D0D0D082D083D0F0D0E032D8
:0F0FEA00D2B6D2B412101CC2B4121022C2B62258
:100FD600C2B6C2B4121022D2B6121022D2B4121065
:040FE6001CC2B42253
:100FA200C2B4D2B612102230B40FC3E54694FF7415
:0E0FB2008094805004054680EEC2B6021022E4
:0C100800D2B4D2B6121022C2B6C2B4227A
:0F0FF900D2B4D2B6C2D530B402D2D5C2B600221D
:100F47008F48E4F547C3E5479408748094805019A7
:100F5700E54825E0F548C2B612102292B4121022D5
:100F6700D2B6121022054780DCC2B6121022D2B4C4
:030F770002102243
:100F1200C2B6121022D2B4E4F546C3E54694087470
:100F2200809480501AD2B6121022E54725E0FFA223
:100F3200B4E4334FF547C2B6121022054680DB12E5
:040F42001022AF4783
:010F46002288
:051022000000000022A7
:06101C00000000000022AC
:100BC200AF0E7E00EF6401701D74068509F084C4C7
:100BD200135407640AFDC3E49DF514E49400F5136D
:100BE200751500850A16EF64024E705EAF0BFE7C2F
:100BF200037DE8120DCE7C00EF250CFFEC3EAB0727
:100C0200FA7E007F04AD03FC120DE0AD0D7C0012F4
:100C12000DCEEF640AF5828E83AC02AD037E007FB7
:100C220004120DE0C37464950DFDE49400FC120DF2
:100C3200CEEF640AFFC3E49582F514E49583F513BD
:0A0C4200C3740A9FF516E49EF51531
:010C4C002285
:100E3500AF0E7E00EF6401700BE53A75F00AA4254C
:100E45003BF50922EF64024E7029E500640F70231B
:100E5500E53975F064A4FFE53875F0E8A42FFFE5E2
:100E65003A75F00AA42F253BFB7A00EAF50FAF038C
:100E75008F1022E53A75F00AA4253BFFE53525E0FC
:050E85002408F8A60797
:010E8A002245
:10096B00C3E5189404748094805003020A5EE5007A
:10097B00640F70047D0180027D00E50E640270043B
:10098B007C0180027C00EC5D6043E51864047030F0
:10099B00EF64014E7021AD0774342518F8A6057D60
:1009AB0005EDC39408748094804003020A5E74348E
:1009BB002DF8E4F60D80EAEF4E6003020A5E8041EB
:1009CB00E5386003020A5E753810020A57E51864B1
:1009DB00067054E500640A70047D0180027D00E519
:1009EB000E640270047C0180027C00EC5D6014C319
:1009FB00EF9402EE9400405BD3EF9407EE9400501B
:100A0B00528049C3EF9401EE9400400AEF9405EE37
:100A1B00940050028036EF64054E703774342518FD
:100A2B00F8A607E4F53B22E500640A70047D01801B
:100A3B00027D00E50E640170047C0180027C00ECF9
:100A4B005D6009E53A64057003F53B2274342518A3
:030A5B00F8A607F3
:010A5E002275
:100E8B00C2D5120FEA7F90120F47120FF920D5F03F
:100E9B00E4FF120F47120FF920D5E5120F128F4402
:100EAB00120FA2E5446455701F754501C3E54594C7
:100EBB0008748094805014120F1274082545F8A6FC
:0B0ECB0007120FF9054580E4120ED756
:010ED60022F9
:100ED700C2D5120FEA7F90120F47120FF920D5F0F3
:100EE700E4FF120F47120FF920D5E5E4F546C3E5F5
:100EF70046940874809480501174082546F8E6FFDC
:0A0F0700120F47120FF9054680E4AF
:010F110022BD
:100C4D0075A0F0AFA0EF64F060597F0A120FC0AF2E
:100C5D00A0EF64F0604DAFA0EF2490601B24C06046
:100C6D001224E0600924F07012E4F545800D7545FD
:100C7D00018008754502800375450375A00F7F0A35
:100C8D00120FC0AFA0EF24F9601324FC600B24FEFB
:100C9D00600314800E7404800674088002740C25A1
:100CAD0045F545E54524F7600F14601114601324D4
:100CBD0003701275456E800D7545088008754509E0
:090CCD008003754578AF457E00F7
:010CD60022FB
:03000000020B36BA
:0C0B3600787FE4F6D8FD758148020B7D45
:100B4200020800E493A3F8E493A34003F68001F2C1
:100B520008DFF48029E493A3F85407240CC8C333B4
:100B6200C4540F4420C8834004F456800146F6DF83
:100B7200E4800B0102040810204080900F7AE47E8A
:100B8200019360BCA3FF543F30E509541FFEE49378
:100B9200A360010ECF54C025E060A840B8E493A33F
:100BA200FAE493A3F8E493A3C8C582C8CAC583CA6A
:100BB200F0A3C8C582C8CAC583CADFE9DEE780BE22
:010FA100004F
:100DCE00EF8DF0A4A8F0CF8CF0A428CE8DF0A42E39
:020DDE00FE22F3
:100DE000BC000BBE0029EF8DF084FFADF022E4CCF7
:100DF000F875F008EF2FFFEE33FEEC33FCEE9DECC0
:100E0000984005FCEE9DFE0FD5F0E9E4CEFD22ED05
:100E1000F8F5F0EE8420D21CFEADF075F008EF2F4F
:100E2000FFED33FD4007985006D5F0F222C398FD40
:050E30000FD5F0EA22DD
:00000001FF
