:080CB300FEFDFBF7EFDFBF7F40
:100C04000832101010101010101011213F065B4F05
:100C1400666D7D077F6F777C395E797100013C00DA
:030C2400013B632E
:1009EE008F32850E33ED640F4C7038E50E24FE60A9
:1009FE001004705CE50975F00A8485F039E509800C
:100A0E0049850B36E50C75F06484F535E50C75F00B
:100A1E000A8475F00A8485F034E50C75F00A848535
:100A2E00F03322ED640A4C7027E50E24FE601004AC
:100A3E00701EE50A75F00A8485F039E50A800BE52B
:100A4E000D75F00A8485F039E50D75F00A84F538D8
:010A5E002275
:100C5F00AD071FED600FE4FEEEC394FF7480948028
:050C6F0050EE0E80F3C1
:010C7400225D
:03000B00020AC620
:0F0AC600C0E0C083C082C0D075D000C000C007A0
:100AD500753DFE758CFE758A0C7432253CF8E6D2A0
:100AE50093D2942421F8E6F580C294D295E53C9002
:100AF5000CB393F580C295C293053CE53C64087040
:030B050002F53CBA
:0D0B0800D007D000D0D0D082D083D0E03212
:100C4600D2AFD2A9D2ABD2B9C2BB758CFE758A0C13
:090C5600D28CD28E120B1580FB2A
:03001B00020800D8
:10080000C0E0C0F0C083C082C0D075D000C000C0BE
:0D08100001C002C003C004C005C006C0073F
:10081D00C28EE50E6401707AE513F58D85148B306B
:10082D00011FAF127E00C3EF94F0748094805004CA
:10083D007410801AEF64F04E701F7512FFC20180A4
:10084D0018D3E512941074809480400874F025122A
:10085D00F5128005751200D201AF127E00AC15ADF8
:10086D0016120A5F7C007D32120A718F17C20212B6
:10087D000C897F90120BD1120C982002F0E4FF121C
:10088D000BD1120C982002E5AF17120BD1120C9858
:10089D00801BE50E64027015B290309009E513F5DA
:0F08AD008D85148B8007E515F58D85168BD28E02
:1008BC00D007D006D005D004D003D002D001D00090
:0B08CC00D0D0D082D083D0F0D0E0323A
:0F0C8900D2B6D2B4120CBBC2B4120CC1C2B62286
:100C7500C2B6C2B4120CC1D2B6120CC1D2B4120C97
:040C8500BBC2B42218
:100C2800C2B4D2B6120CC130B40FC3E54294FF74FB
:0E0C38008094805004054280EEC2B6020CC1CA
:0C0CA700D2B4D2B6120CC1C2B6C2B42244
:0F0C9800D2B4D2B6C2D530B402D2D5C2B6002281
:100BD1008F44E4F543C3E54394087480948050192D
:100BE100E54425E0F544C2B6120CC192B4120CC121
:100BF100D2B6120CC1054380DCC2B6120CC1D2B40C
:030C0100020CC121
:100B9C00C2B6120CC1D2B4E4F542C3E54294087457
:100BAC00809480501AD2B6120CC1E54325E0FFA206
:100BBC00B4E4334FF543C2B6120CC1054280DB12CC
:040BCC000CC1AF4366
:010BD0002202
:050CC10000000000220C
:060CBB0000000000002211
:10096300AF0E7E00EF6401701D74068509F084C428
:10097300135407640AFDC3E49DF514E49400F513CE
:10098300751500850A16EF64024E705EAF0BFE7C90
:10099300037DE8120A5F7C00EF250CFFEC3EAB07FA
:1009A300FA7E007F04AD03FC120A71AD0D7C0012C8
:1009B3000A5FEF640AF5828E83AC02AD037E007F8B
:1009C30004120A71C37464950DFDE49400FC120AC9
:1009D3005FEF640AFFC3E49582F514E49583F5138E
:0A09E300C3740A9FF516E49EF51593
:0109ED0022E7
:100B1500C2D5120C897F90120BD1120C9820D5F0FA
:100B2500E4FF120BD1120C9820D5E5120B9C8F40D7
:100B3500120C28E5406455701F754101C3E54194C9
:100B450008748094805014120B9C74082541F8A6F3
:0B0B550007120C98054180E4120B61B0
:010B60002272
:100B6100C2D5120C897F90120BD1120C9820D5F0AE
:100B7100E4FF120BD1120C9820D5E5E4F542C3E550
:100B810042940874809480501174082542F8E6FF5D
:0A0B9100120BD1120C98054280E40B
:010B9B002237
:030000000208D71C
:0C08D700787FE4F6D8FD75814402091E0C
:1008E300020C46E493A3F8E493A34003F68001F2D9
:1008F30008DFF48029E493A3F85407240CC8C33316
:10090300C4540F4420C8834004F456800146F6DFE4
:10091300E4800B0102040810204080900C04E47E64
:10092300019360BCA3FF543F30E509541FFEE493D9
:10093300A360010ECF54C025E060A840B8E493A3A0
:10094300FAE493A3F8E493A3C8C582C8CAC583CACB
:10095300F0A3C8C582C8CAC583CADFE9DEE780BE83
:010C270000CC
:100A5F00EF8DF0A4A8F0CF8CF0A428CE8DF0A42EAB
:020A6F00FE2265
:100A7100BC000BBE0029EF8DF084FFADF022E4CC69
:100A8100F875F008EF2FFFEE33FEEC33FCEE9DEC32
:100A9100984005FCEE9DFE0FD5F0E9E4CEFD22ED78
:100AA100F8F5F0EE8420D21CFEADF075F008EF2FC2
:100AB100FFED33FD4007985006D5F0F222C398FDB3
:050AC1000FD5F0EA2250
:00000001FF
