:080EA200FEFDFBF7EFDFBF7F4F
:100E08000834101010101010101011213F065B4FFD
:100E1800666D7D077F6F777C395E797100013E00D2
:070E2800013D6302320000EE
:100C41008F34850E35ED640F4C7038E50E24FE604F
:100C51001004705CE50975F00A8485F03BE50980B4
:100C610049850B38E50C75F06484F537E50C75F0B2
:100C71000A8475F00A8485F036E50C75F00A8485DE
:100C8100F03522ED640A4C7027E50E24FE60100455
:100C9100701EE50A75F00A8485F03BE50A800BE5D4
:100CA1000D75F00A8485F03BE50D75F00A84F53A7F
:010CB1002220
:100E4E00AD071FED600FE4FEEEC394FF7480948037
:050E5E0050EE0E80F3D0
:010E6300226C
:03000B00020BBB2A
:0F0BBB00C0E0C083C082C0D075D000C000C007AA
:100BCA00753FFEC28C758CFE758A0C0533E5337051
:100BDA00020532B4580AE532B402056311FF8009EE
:100BEA00E533453270037511FFE518F4600EE53EF2
:100BFA00B518092434F8E65511FF80077434253EE8
:100C0A00F8E6FFD293D29474212FF8E6F580C294C5
:100C1A00D295E53E900EA293F580C295C293053E09
:0A0C2A00E53E64087002F53ED28C2E
:0D0C3400D007D000D0D0D082D083D0E032E5
:10080000D2AFD2A9D2ABD2B9C2BB758CFE758A0C5D
:10081000D28CD28E120D197D0F7C00E4FF120C4198
:10082000120B318E428F43E543640C4542702030F9
:100830000012300405120AA6C204C2007D0F7C001B
:10084000E4FF8008D2007D0F7C007F05120C41E59B
:1008500043640D45427029300313E50E24FE600801
:1008600004701D750E028018750E01801375180135
:1008700074342518F876017D0F7C007F05120C4139
:10088000E543640E4542708C20000302093EE500FA
:10089000640F4500600675000075000FE543646E47
:1008A0004542702AAF0EFEEF6401700FD3E5189435
:1008B0000674809480400415188013EF64024E7013
:1008C0000DD3E51894047480948040021518E54314
:1008D000647845427058AF0EFEEF64017026AD1883
:1008E000FCC3ED9406748094805002800EE53A6457
:1008F0000570028006ED64074C7005751806802EA1
:100900000518802AEF64024E7024AF18FEC3EF94DE
:1009100004748094805002800EE538640170028077
:1009200006EF64074E700575180480020518E5434C
:10093000641045426003020814D204020814D20075
:0309400002081496
:03001B0002094394
:10094300C0E0C0F0C083C082C0D075D000C000C07A
:0D09530001C002C003C004C005C006C007FB
:10096000C28EE50E6401707AE513F58D85148B3027
:10097000011FAF127E00C3EF94F074809480500486
:100980007410801AEF64F04E701F7512FFC2018060
:1009900018D3E512941074809480400874F02512E6
:1009A000F5128005751200D201AF127E00AC15ADB4
:1009B00016120CB27C007D32120CC48F17C20212C8
:1009C0000E787F90120DD5120E872002F0E4FF12F0
:1009D0000DD5120E872002E5AF17120DD5120E8726
:1009E000801BE50E64027015B290309009E513F596
:0F09F0008D85148B8007E515F58D85168BD28EBE
:1009FF00D007D006D005D004D003D002D001D0004C
:0B0A0F00D0D0D082D083D0F0D0E032F5
:0F0E7800D2B6D2B4120EAAC2B4120EB0C2B622B3
:100E6400C2B6C2B4120EB0D2B6120EB0D2B4120EC2
:040E7400AAC2B42238
:100E3000C2B4D2B6120EB030B40FC3E54694FF74FC
:0E0E40008094805004054680EEC2B6020EB0CB
:0C0E9600D2B4D2B6120EB0C2B6C2B42262
:0F0E8700D2B4D2B6C2D530B402D2D5C2B6002290
:100DD5008F48E4F547C3E54794087480948050191B
:100DE500E54825E0F548C2B6120EB092B4120EB031
:100DF500D2B6120EB0054780DCC2B6120EB0D2B420
:030E0500020EB02A
:100DA000C2B6120EB0D2B4E4F546C3E54694087458
:100DB000809480501AD2B6120EB0E54725E0FFA20B
:100DC000B4E4334FF547C2B6120EB0054680DB12CD
:040DD0000EB0AF476B
:010DD40022FC
:050EB00000000000221B
:060EAA0000000000002220
:100AA600AF0E7E00EF6401701D74068509F084C4E4
:100AB600135407640AFDC3E49DF514E49400F5138A
:100AC600751500850A16EF64024E705EAF0BFE7C4C
:100AD600037DE8120CB27C00EF250CFFEC3EAB0761
:100AE600FA7E007F04AD03FC120CC4AD0D7C00122F
:100AF6000CB2EF640AF5828E83AC02AD037E007FF2
:100B060004120CC4C37464950DFDE49400FC120C2D
:100B1600B2EF640AFFC3E49582F514E49583F513F6
:0A0B2600C3740A9FF516E49EF5154E
:010B300022A2
:100D1900C2D5120E787F90120DD5120E8720D5F00C
:100D2900E4FF120DD5120E8720D5E5120DA08F44D0
:100D3900120E30E5446455701F754501C3E54594AD
:100D490008748094805014120DA074082545F8A6E3
:0B0D590007120E87054580E4120D65AF
:010D6400226C
:100D6500C2D5120E787F90120DD5120E8720D5F0C0
:100D7500E4FF120DD5120E8720D5E5E4F546C3E54F
:100D850046940874809480501174082546F8E6FF4F
:0A0D9500120DD5120E87054680E40A
:010D9F002231
:100B310075A0F0AFA0EF64F060597F0A120E4EAFBE
:100B4100A0EF64F0604DAFA0EF2490601B24C06063
:100B51001224E0600924F07012E4F545800D75451A
:100B6100018008754502800375450375A00F7F0A52
:100B7100120E4EAFA0EF24F9601324FC600B24FE8B
:100B8100600314800E7404800674088002740C25BE
:100B910045F545E54524F7600F14601114601324F1
:100BA10003701275456E800D7545088008754509FD
:090BB1008003754578AF457E0014
:010BBA002218
:03000000020A1AD7
:0C0A1A00787FE4F6D8FD758148020A617F
:100A2600020800E493A3F8E493A34003F68001F2DE
:100A360008DFF48029E493A3F85407240CC8C333D1
:100A4600C4540F4420C8834004F456800146F6DFA0
:100A5600E4800B0102040810204080900E08E47E1A
:100A6600019360BCA3FF543F30E509541FFEE49395
:100A7600A360010ECF54C025E060A840B8E493A35C
:100A8600FAE493A3F8E493A3C8C582C8CAC583CA87
:100A9600F0A3C8C582C8CAC583CADFE9DEE780BE3F
:010E2F0000C2
:100CB200EF8DF0A4A8F0CF8CF0A428CE8DF0A42E56
:020CC200FE2210
:100CC400BC000BBE0029EF8DF084FFADF022E4CC14
:100CD400F875F008EF2FFFEE33FEEC33FCEE9DECDD
:100CE400984005FCEE9DFE0FD5F0E9E4CEFD22ED23
:100CF400F8F5F0EE8420D21CFEADF075F008EF2F6D
:100D0400FFED33FD4007985006D5F0F222C398FD5D
:050D14000FD5F0EA22FA
:00000001FF
