:08020900FEFDFBF7EFDFBF7FF4
:1001610011213F065B4F666D7D077F6F777C395E9E
:09017100797100013400013363CF
:070211008F358C368D37227A
:1001C100AD071FED600FE4FEEEC394FF74809480D1
:0501D10050EE0E80F36A
:0101D6002206
:0300030002001ADE
:01001A0032B3
:03000B000200AA46
:0F00AA00C0E0C083C082C0D075D000C000C007C6
:1000B900753DFE758CFE758A0C74122534F8E6D2EE
:1000C90093D2942421F8E6F580C294D295E5349030
:1000D900020993F580C295C2930534E5346408702A
:0300E90002F534E9
:0D00EC00D007D000D0D0D082D083D0E03239
:0A017A0008121010101010101010E1
:10018500D2AFD2A9D2ABD2B9C2BB758CFE758A0CDF
:0E019500D28CD28EC293120222EF645580F8F3
:03001B00020221BD
:0102210032AA
:0F01EB00D2B6D2B4120218C2B4120006C2B622A3
:1001D700C2B6C2B4120006D2B6120006D2B41202D8
:0401E70018C2B42264
:1001A300C2B4D2B612000630B40FC3E51F94FF7475
:0E01B3008094805004051F80EEC2B602000644
:0C000E00D2B4D2B6120006C2B6C2B422B0
:0F01FA00D2B4D2B6C2D530B402D2D5C2B600222A
:10012E008F39E4F538C3E5389408748094805019FB
:10013E00E53925E0F539C2B612000692B412000672
:10014E00D2B6120006053880DCC2B6120006D2B452
:03015E0002000696
:1000F900C2B6120006D2B4E4F53AC3E53A940874DC
:10010900809480501AD2B6120006E53B25E0FFA282
:10011900B4E4334FF53BC2B6120006053A80DB1250
:040129000006AF3BE2
:01012D0022AF
:050006000000000022D3
:06021800000000000022BE
:03021E008F3C22F0
:0102220022B9
:0102230022B8
:0300000002001EDD
:0C001E00787FE4F6D8FD75813D02006596
:10002A00020185E493A3F8E493A34003F68001F266
:10003A0008DFF48029E493A3F85407240CC8C333D7
:10004A00C4540F4420C8834004F456800146F6DFA6
:10005A00E4800B0102040810204080900161E47ED4
:10006A00019360BCA3FF543F30E509541FFEE4939B
:10007A00A360010ECF54C025E060A840B8E493A362
:10008A00FAE493A3F8E493A3C8C582C8CAC583CA8D
:10009A00F0A3C8C582C8CAC583CADFE9DEE780BE45
:01018400007A
:00000001FF
