:080BE600FEFDFBF7EFDFBF7F0E
:100B27000832101010101010101011213F065B4FE3
:100B3700666D7D077F6F777C395E797100013C00B8
:030B4700013B630C
:100911008F32850E33ED640F4C7038E50E24FE6086
:100921001004705CE50975F00A8485F039E50980E9
:1009310049850B36E50C75F06484F535E50C75F0E9
:100941000A8475F00A8485F034E50C75F00A848513
:10095100F03322ED640A4C7027E50E24FE6010048A
:10096100701EE50A75F00A8485F039E50A800BE509
:100971000D75F00A8485F039E50D75F00A84F538B6
:010981002253
:100B8200AD071FED600FE4FEEEC394FF7480948006
:050B920050EE0E80F39F
:010B9700223B
:03000B000209E9FE
:0F09E900C0E0C083C082C0D075D000C000C0077E
:1009F8007517FE758CFE758A0C7432253CF8E6D2A4
:100A080093D2942421F8E6F580C294D295E53C90DF
:100A18000BE693F580C295C293053CE53C640870EB
:030A280002F53C98
:0D0A2B00D007D000D0D0D082D083D0E032F0
:100B6900D2AFD2A9D2ABD2B9C2BB758CFE758A0CF1
:090B7900D28CD28E120A3880FBE6
:03001B00020BAC29
:100BAC00C0E0C28EE512F58D85138BD28ED0E0326B
:0F0BBC00D2B6D2B4120BEEC2B4120BF4C2B622F0
:100B9800C2B6C2B4120BF4D2B6120BF4D2B4120B12
:040BA800EEC2B422C3
:100B4B00C2B4D2B6120BF430B40FC3E51A94FF74CF
:0E0B5B008094805004051A80EEC2B6020BF49E
:0C0BDA00D2B4D2B6120BF4C2B6C2B422E0
:0F0BCB00D2B4D2B6C2D530B402D2D5C2B600224F
:100AF4008F1CE4F51BC3E51B940874809480501983
:100B0400E51C25E0F51CC2B6120BF492B4120BF4EA
:100B1400D2B6120BF4051B80DCC2B6120BF4D2B4AD
:030B2400020BF4CD
:100ABF00C2B6120BF4D2B4E4F51AC3E51A94087453
:100ACF00809480501AD2B6120BF4E51B25E0FFA2DA
:100ADF00B4E4334FF51BC2B6120BF4051A80DB12C8
:040AEF000BF4AF1B3A
:010AF30022E0
:050BF4000000000022DA
:060BEE00000000000022DF
:10088C00AF0E7E00EF6401701774068509F084C406
:10089C00135407640AFDC3E49DF513E49400F512A8
:1008AC00EF64024E705EAF0BFE7C037DE812098292
:1008BC007C00EF250CFFEC3EAB07FA7E007F04AD0D
:1008CC0003FC120994AD0D7C00120982EF640AF549
:1008DC00828E83AC02AD037E007F04120994C37434
:1008EC0064950DFDE49400FC120982EF640AFFC3C9
:1008FC00E49582F513E49583F512C3740A9FF515FC
:04090C00E49EF5145C
:0109100022C4
:100A3800C2D5120BBC7F90120AF4120BCB20D5F052
:100A4800E4FF120AF4120BCB20D5E5120ABF8F1867
:100A5800120B4BE5186455701F751901C3E51994FD
:100A680008748094805014120ABF74082519F8A6D7
:0B0A780007120BCB051980E4120A8462
:010A83002250
:100A8400C2D5120BBC7F90120AF4120BCB20D5F006
:100A9400E4FF120AF4120BCB20D5E5E4F51AC3E502
:100AA4001A94087480948050117408251AF8E6FF8B
:0A0AB400120AF4120BCB051A80E4BD
:010ABE002215
:03000000020800F3
:0C080000787FE4F6D8FD75813C020847C3
:10080C00020B69E493A3F8E493A34003F68001F28E
:10081C0008DFF48029E493A3F85407240CC8C333ED
:10082C00C4540F4420C8834004F456800146F6DFBC
:10083C00E4800B0102040810204080900B27E47E1A
:10084C00019360BCA3FF543F30E509541FFEE493B1
:10085C00A360010ECF54C025E060A840B8E493A378
:10086C00FAE493A3F8E493A3C8C582C8CAC583CAA3
:10087C00F0A3C8C582C8CAC583CADFE9DEE780BE5B
:010B4A0000AA
:10098200EF8DF0A4A8F0CF8CF0A428CE8DF0A42E89
:02099200FE2243
:10099400BC000BBE0029EF8DF084FFADF022E4CC47
:1009A400F875F008EF2FFFEE33FEEC33FCEE9DEC10
:1009B400984005FCEE9DFE0FD5F0E9E4CEFD22ED56
:1009C400F8F5F0EE8420D21CFEADF075F008EF2FA0
:1009D400FFED33FD4007985006D5F0F222C398FD91
:0509E4000FD5F0EA222E
:00000001FF
