:080D7B00FEFDFBF7EFDFBF7F77
:100CE5000832101010101010101011213F065B4F24
:100CF500666D7D077F6F777C395E797100013C00F9
:030D0500013B634C
:100A67008F32850E33ED640F4C7038E50E24FE602F
:100A77001004705CE50975F00A8485F039E5098092
:100A870049850B36E50C75F06484F535E50C75F092
:100A97000A8475F00A8485F034E50C75F00A8485BC
:100AA700F03322ED640A4C7027E50E24FE60100433
:100AB700701EE50A75F00A8485F039E50A800BE5B2
:100AC7000D75F00A8485F039E50D75F00A84F5385F
:010AD70022FC
:100D2700AD071FED600FE4FEEEC394FF748094805F
:050D370050EE0E80F3F8
:010D3C002294
:03000B00020BA73E
:0F0BA700C0E0C083C082C0D075D000C000C007BE
:100BB600753DFE758CFE758A0C7432253CF8E6D2BE
:100BC60093D2942421F8E6F580C294D295E53C9020
:100BD6000D7B93F580C295C293053CE53C64087095
:030BE60002F53CD9
:0D0BE900D007D000D0D0D082D083D0E03231
:1009EE00D2AFD2A9D2ABD2B9C2BB758CFE758A0C6E
:1009FE00D28CD28E120BF67D0F7C00E4FF120A67AA
:100A0E00120AD88E408F41E541640C4540701E306D
:100A1E000010300403120963C2007D0F7C00E4FF56
:100A2E008008D2007D0F7C007F05120A67E54164C5
:100A3E000D454070BF300313E50E24FE60080470B0
:100A4E00B3750E0280AE750E0180A97533017D0F50
:090A5E007C007F05120A67809BF1
:03001B00020800D8
:10080000C0E0C0F0C083C082C0D075D000C000C0BE
:0D08100001C002C003C004C005C006C0073F
:10081D00C28EE50E6401707AE513F58D85148B306B
:10082D00011FAF127E00C3EF94F0748094805004CA
:10083D007410801AEF64F04E701F7512FFC20180A4
:10084D0018D3E512941074809480400874F025122A
:10085D00F5128005751200D201AF127E00AC15ADF8
:10086D0016120B407C007D32120B528F17C20212F2
:10087D000D517F90120CB2120D602002F0E4FF12A8
:10088D000CB2120D602002E5AF17120CB2120D6002
:10089D00801BE50E64027015B290309009E513F5DA
:0F08AD008D85148B8007E515F58D85168BD28E02
:1008BC00D007D006D005D004D003D002D001D00090
:0B08CC00D0D0D082D083D0F0D0E0323A
:0F0D5100D2B6D2B4120D83C2B4120D89C2B6222B
:100D3D00C2B6C2B4120D89D2B6120D89D2B4120D3B
:040D4D0083C2B42287
:100D0900C2B4D2B6120D8930B40FC3E54494FF744E
:0E0D19008094805004054480EEC2B6020D891D
:0C0D6F00D2B4D2B6120D89C2B6C2B422B2
:0F0D6000D2B4D2B6C2D530B402D2D5C2B60022B8
:100CB2008F46E4F545C3E545940874809480501945
:100CC200E54625E0F546C2B6120D8992B4120D89A9
:100CD200D2B6120D89054580DCC2B6120D89D2B496
:030CE200020D8977
:100C7D00C2B6120D89D2B4E4F544C3E544940874A8
:100C8D00809480501AD2B6120D89E54525E0FFA259
:100C9D00B4E4334FF545C2B6120D89054480DB121D
:040CAD000D89AF45B9
:010CB1002220
:050D8900000000002243
:060D830000000000002248
:10096300AF0E7E00EF6401701D74068509F084C428
:10097300135407640AFDC3E49DF514E49400F513CE
:10098300751500850A16EF64024E705EAF0BFE7C90
:10099300037DE8120B407C00EF250CFFEC3EAB0718
:1009A300FA7E007F04AD03FC120B52AD0D7C0012E6
:1009B3000B40EF640AF5828E83AC02AD037E007FA9
:1009C30004120B52C37464950DFDE49400FC120BE6
:1009D30040EF640AFFC3E49582F514E49583F513AD
:0A09E300C3740A9FF516E49EF51593
:0109ED0022E7
:100BF600C2D5120D517F90120CB2120D6020D5F0A5
:100C0600E4FF120CB2120D6020D5E5120C7D8F4266
:100C1600120D09E5426455701F754301C3E54394FF
:100C260008748094805014120C7D74082543F8A62D
:0B0C360007120D60054380E4120C4221
:010C41002290
:100C4200C2D5120D517F90120CB2120D6020D5F058
:100C5200E4FF120CB2120D6020D5E5E4F544C3E5C1
:100C620044940874809480501174082544F8E6FF77
:0A0C7200120CB2120D60054480E47C
:010C7C002255
:100AD80075A0F0AFA0EF64F060597F0A120D27AF40
:100AE800A0EF64F0604DAFA0EF2490601B24C060BD
:100AF8001224E0600924F07012E4F543800D754378
:100B0800018008754302800375430375A00F7F0AAF
:100B1800120D27AFA0EF24F9601324FC600B24FE0C
:100B2800600314800E7404800674088002740C2517
:070B380043F543AF437E00CB
:010B3F002293
:030000000208D71C
:0C08D700787FE4F6D8FD75814602091E0A
:1008E3000209EEE493A3F8E493A34003F68001F234
:1008F30008DFF48029E493A3F85407240CC8C33316
:10090300C4540F4420C8834004F456800146F6DFE4
:10091300E4800B0102040810204080900CE5E47E83
:10092300019360BCA3FF543F30E509541FFEE493D9
:10093300A360010ECF54C025E060A840B8E493A3A0
:10094300FAE493A3F8E493A3C8C582C8CAC583CACB
:10095300F0A3C8C582C8CAC583CADFE9DEE780BE83
:010D080000EA
:100B4000EF8DF0A4A8F0CF8CF0A428CE8DF0A42EC9
:020B5000FE2283
:100B5200BC000BBE0029EF8DF084FFADF022E4CC87
:100B6200F875F008EF2FFFEE33FEEC33FCEE9DEC50
:100B7200984005FCEE9DFE0FD5F0E9E4CEFD22ED96
:100B8200F8F5F0EE8420D21CFEADF075F008EF2FE0
:100B9200FFED33FD4007985006D5F0F222C398FDD1
:050BA2000FD5F0EA226E
:00000001FF
