:08000300FEFDFBF7EFDFBF7FFC
:10020D000832101010101010101011213F065B4F06
:10021D00666D7D077F6F777C395E797100013C00DB
:03022D00013B632F
:1000AA008F32850E33ED640F4C7038E50E24FE60F6
:1000BA001004705CE50975F00A8485F039E5098059
:1000CA0049850B36E50C75F06484F535E50C75F059
:1000DA000A8475F00A8485F034E50C75F00A848583
:1000EA00F03322ED640A4C7027E50E24FE601004FA
:1000FA00701EE50A75F00A8485F039E50A800BE579
:10010A000D75F00A8485F039E50D75F00A84F53825
:01011A0022C2
:10026800AD071FED600FE4FEEEC394FF7480948029
:0502780050EE0E80F3C2
:01027D00225E
:03000B0002011BD4
:0F011B00C0E0C083C082C0D075D000C000C00754
:10012A00751BFE758CFE758A0C7432253CF8E6D276
:10013A0093D2942421F8E6F580C294D295E53C90B6
:10014A00000393F580C295C293053CE53C640870B0
:03015A0002F53C6F
:0D015D00D007D000D0D0D082D083D0E032C7
:10024F00D2AFD2A9D2ABD2B9C2BB758CFE758A0C14
:09025F00D28CD28E12001A80FB31
:03001B000202924C
:10029200C0E0C28EE512F58D85138BD28ED0E0328E
:0F02A200D2B6D2B41202C0C2B41202C6C2B62281
:10027E00C2B6C2B41202C6D2B61202C6D2B41202AC
:04028E00C0C2B42214
:10023100C2B4D2B61202C630B40FC3E51D94FF7426
:0E0241008094805004051D80EEC2B60202C6F5
:0C000E00D2B4D2B61202C6C2B6C2B422EE
:0F02B100D2B4D2B6C2D530B402D2D5C2B6002272
:1001DA008F18E4F517C3E5179408748094805019B2
:1001EA00E51825E0F518C2B61202C692B41202C684
:1001FA00D2B61202C6051780DCC2B61202C6D2B443
:03020A000202C627
:1001A500C2B61202C6D2B4E4F519C3E519940874AF
:1001B500809480501AD2B61202C6E51A25E0FFA235
:1001C500B4E4334FF51AC2B61202C6051980DB1224
:0401D50002C6AF1A95
:0101D9002203
:0502C600000000002211
:0602C00000000000002216
:0302CB008F1E2261
:01001A0022C3
:10016A00C2D51202A27F901201DA1202B120D5F092
:10017A00E4FF1201DA1202B120D5E5E4F51FC3E566
:10018A001F94087480948050117408251FF8E6FFA4
:0A019A001201DA1202B1051F80E421
:0101A4002238
:0300000002001EDD
:0C001E00787FE4F6D8FD75813C02006597
:10002A0002024FE493A3F8E493A34003F68001F29B
:10003A0008DFF48029E493A3F85407240CC8C333D7
:10004A00C4540F4420C8834004F456800146F6DFA6
:10005A00E4800B010204081020408090020DE47E27
:10006A00019360BCA3FF543F30E509541FFEE4939B
:10007A00A360010ECF54C025E060A840B8E493A362
:10008A00FAE493A3F8E493A3C8C582C8CAC583CA8D
:10009A00F0A3C8C582C8CAC583CADFE9DEE780BE45
:0102300000CD
:00000001FF
