:080DFE00FEFDFBF7EFDFBF7FF4
:100D64000834101010101010101011213F065B4FA2
:100D7400666D7D077F6F777C395E797100013E0077
:070D8400013D630232000093
:100B9D008F34850E35ED640F4C7038E50E24FE60F4
:100BAD001004705CE50975F00A8485F03BE5098059
:100BBD0049850B38E50C75F06484F537E50C75F057
:100BCD000A8475F00A8485F036E50C75F00A848583
:100BDD00F03522ED640A4C7027E50E24FE601004FA
:100BED00701EE50A75F00A8485F03BE50A800BE579
:100BFD000D75F00A8485F03BE50D75F00A84F53A24
:010C0D0022C4
:100DAA00AD071FED600FE4FEEEC394FF74809480DC
:050DBA0050EE0E80F375
:010DBF002211
:03000B00020B17CE
:0F0B1700C0E0C083C082C0D075D000C000C0074E
:100B2600753FFEC28C758CFE758A0C0533E53370F5
:100B3600020532B4580AE532B402056311FF800992
:100B4600E533453270037511FFE518F4600EE53E96
:100B5600B518092434F8E65511FF80077434253E8C
:100B6600F8E6FFD293D29474212FF8E6F580C2946A
:100B7600D295E53E900DFE93F580C295C293053E53
:0A0B8600E53E64087002F53ED28CD3
:0D0B9000D007D000D0D0D082D083D0E0328A
:1008D700D2AFD2A9D2ABD2B9C2BB758CFE758A0C86
:1008E700D28CD28E120C757D0F7C00E4FF120B9D0B
:1008F700120A8D8E428F43E543640C4542701E30C9
:100907000010300403120A02C2007D0F7C00E4FFCE
:100917008008D2007D0F7C007F05120B9DE54364A4
:100927000D45427029300313E50E24FE600804705C
:100937001D750E028018750E018013751801743429
:100947002518F876017D0F7C007F05120B9DE54386
:10095700640E4542708E200311E500640F45006068
:0F0967008375000075000F0208EBD2030208EB46
:03001B00020800D8
:10080000C0E0C0F0C083C082C0D075D000C000C0BE
:0D08100001C002C003C004C005C006C0073F
:10081D00C28EE50E6401707AE513F58D85148B306B
:10082D00011FAF127E00C3EF94F0748094805004CA
:10083D007410801AEF64F04E701F7512FFC20180A4
:10084D0018D3E512941074809480400874F025122A
:10085D00F5128005751200D201AF127E00AC15ADF8
:10086D0016120C0E7C007D32120C208F17C2021254
:10087D000DD47F90120D31120DE32002F0E4FF1222
:10088D000D31120DE32002E5AF17120D31120DE3FC
:10089D00801BE50E64027015B290309009E513F5DA
:0F08AD008D85148B8007E515F58D85168BD28E02
:1008BC00D007D006D005D004D003D002D001D00090
:0B08CC00D0D0D082D083D0F0D0E0323A
:0F0DD400D2B6D2B4120E06C2B4120E0CC2B622A0
:100DC000C2B6C2B4120E0CD2B6120E0CD2B4120EAF
:040DD00006C2B42281
:100D8C00C2B4D2B6120E0C30B40FC3E54694FF7445
:0E0D9C008094805004054680EEC2B6020E0C14
:0C0DF200D2B4D2B6120E0CC2B6C2B422AB
:0F0DE300D2B4D2B6C2D530B402D2D5C2B6002235
:100D31008F48E4F547C3E5479408748094805019BF
:100D4100E54825E0F548C2B6120E0C92B4120E0C1D
:100D5100D2B6120E0C054780DCC2B6120E0CD2B40C
:030D6100020E0C73
:100CFC00C2B6120E0CD2B4E4F546C3E546940874A1
:100D0C00809480501AD2B6120E0CE54725E0FFA253
:100D1C00B4E4334FF547C2B6120E0C054680DB1215
:040D2C000E0CAF47B3
:010D300022A0
:050E0C000000000022BF
:060E0600000000000022C4
:100A0200AF0E7E00EF6401701D74068509F084C488
:100A1200135407640AFDC3E49DF514E49400F5132E
:100A2200751500850A16EF64024E705EAF0BFE7CF0
:100A3200037DE8120C0E7C00EF250CFFEC3EAB07A9
:100A4200FA7E007F04AD03FC120C20AD0D7C001277
:100A52000C0EEF640AF5828E83AC02AD037E007F3A
:100A620004120C20C37464950DFDE49400FC120C76
:100A72000EEF640AFFC3E49582F514E49583F5133F
:0A0A8200C3740A9FF516E49EF515F3
:010A8C002247
:100C7500C2D5120DD47F90120D31120DE320D5F09F
:100C8500E4FF120D31120DE320D5E5120CFC8F4463
:100C9500120D8CE5446455701F754501C3E54594F7
:100CA50008748094805014120CFC74082545F8A62D
:0B0CB50007120DE3054580E4120CC19E
:010CC0002211
:100CC100C2D5120DD47F90120D31120DE320D5F053
:100CD100E4FF120D31120DE320D5E5E4F546C3E53D
:100CE10046940874809480501174082546F8E6FFF4
:0A0CF100120D31120DE3054680E4F8
:010CFB0022D6
:100A8D0075A0F0AFA0EF64F060597F0A120DAAAF08
:100A9D00A0EF64F0604DAFA0EF2490601B24C06008
:100AAD001224E0600924F07012E4F545800D7545BF
:100ABD00018008754502800375450375A00F7F0AF7
:100ACD00120DAAAFA0EF24F9601324FC600B24FED5
:100ADD00600314800E7404800674088002740C2563
:100AED0045F545E54524F7600F1460111460132496
:100AFD0003701275456E800D7545088008754509A2
:090B0D008003754578AF457E00B8
:010B160022BC
:030000000209767C
:0C097600787FE4F6D8FD7581480209BDC9
:100982000208D7E493A3F8E493A34003F68001F2AC
:1009920008DFF48029E493A3F85407240CC8C33376
:1009A200C4540F4420C8834004F456800146F6DF45
:1009B200E4800B0102040810204080900D64E47E64
:1009C200019360BCA3FF543F30E509541FFEE4933A
:1009D200A360010ECF54C025E060A840B8E493A301
:1009E200FAE493A3F8E493A3C8C582C8CAC583CA2C
:1009F200F0A3C8C582C8CAC583CADFE9DEE780BEE4
:010D8B000067
:100C0E00EF8DF0A4A8F0CF8CF0A428CE8DF0A42EFA
:020C1E00FE22B4
:100C2000BC000BBE0029EF8DF084FFADF022E4CCB8
:100C3000F875F008EF2FFFEE33FEEC33FCEE9DEC81
:100C4000984005FCEE9DFE0FD5F0E9E4CEFD22EDC7
:100C5000F8F5F0EE8420D21CFEADF075F008EF2F11
:100C6000FFED33FD4007985006D5F0F222C398FD02
:050C70000FD5F0EA229F
:00000001FF
