:08000300FEFDFBF7EFDFBF7FFC
:1008CA000868101010101010101012523F065B4FDB
:1008DA00666D7D077F6F777C395E797100400172A2
:0B08EA00000171630167FF0264000061
:1005A5008D668F68AF667E00EF640F704A756A0FBF
:1005B500E56924FE601C046003020641756B117534
:1005C5006C11756D11E51475F00A8485F06FE514ED
:1005D5008064756B1185166CE51775F06484F56D8F
:1005E500E51775F00A8475F00A8485F06EE51775D0
:1005F500F00A8485F06F22EF640A4E703FE51924F6
:10060500FE601C047036756A0A756B11756C117580
:100615006D11E51575F00A8485F06FE51580177580
:100625006A0D756B11756C11756D11E51875F00A0C
:0D0635008485F06FE51875F00A84F56E22DB
:10098700AD071FED600FE4FEEEC394FF7480948003
:0509970050EE0E80F39C
:01099C002238
:03000B0002075B8E
:0F075B00C0E0C083C082C0D075D000C000C0070E
:10076A00C28C758CFE758A0CC3E5659446E5649463
:10077A000040097564007565006367FF7468257237
:10078A00F8E6FFD293300010E51EB5720B74522FB3
:10079A00F8E65567F580800774522FF8E6F580D29F
:1007AA0094C294E57290000393F580D295C295C2E3
:1007BA00930572C3E572940874809480400375723D
:0B07CA00000565E56570020564D28C37
:0D07D500D007D000D0D0D082D083D0E03249
:0B08F5000913551932003232010000D7
:10001E00D2AFD2A9D2AB758911758CFE758A0CD26E
:10002E008CD28E1207E21204388519697D0F7C007E
:10003E00E4FF1205A512034E8E508F5120000302CD
:10004E0001BAE551640C45507026C20030040FC24F
:10005E0004C2AF120882120438D2AF751EFF851982
:10006E00697D0F7C00E4FF1205A57550007551FFE8
:10007E00E551640D4550702A300310E51924FE60D9
:10008E000804700F756902800A8005D203751E017F
:10009E007569017D0F7C007F051205A575500075F1
:1000AE0051FFE551640E45507023751E0220031555
:1000BE00E56A640F60047D0F80027D0A7C007F0577
:1000CE001205A58002C2037550007551FFE55164FB
:1000DE000A45507031200328E56A640F7015E569F2
:1000EE006402700FD3E51E94047480948040111541
:1000FE001E800DD3E51E9406748094804002151E5A
:10010E007550007551FFE55164144550706720031A
:10011E005EC3E51E9407748094805002051EAF6A7C
:10012E007E00EF640F701CE56964027016C3E51E55
:10013E009404748094804006E56C64017031751EE1
:10014E0004802CC3E51E9406748094805003751EA3
:10015E0006EF640D4E6009E56E64057003751E06AC
:10016E00E56A640D7009E56E64087003751E067508
:10017E0050007551FFE551640F45507007D20412BF
:10018E000839801FD3E5519409E5509400400302CD
:10019E000043C3E55094005003020043AF51AE50EC
:1001AE0012025E7550007551FF020043751EFFE589
:1001BE0051640C45507018D2008519697D0FFC7F73
:1001CE00051205A5D203751E017550007551FFE588
:1001DE0051640D4550701F0569C3E5699403748021
:1001EE00948040037569017D0F7C00E4FF1205A524
:1001FE007550007551FFE551640E45507019E56A52
:10020E00640F60047D0F80027D0A7C00E4FF1205FE
:10021E00A57550007551FFE551640F4550600302FE
:10022E000043E5696519601FE51964017003120941
:10023E009D856919C2AF1208827D0F7C00E4FF1202
:10024E0005A5120438D2AF7550007551FF02004358
:03001B000204F4E8
:1004F400C0E0C0F0C083C082C0D075D000C000C0CE
:1005040001C002C003C004C005C006C007C28EE516
:100514001964017054E510F58D85118B300116D3E3
:10052400E51C94EF74809480500474108014C2010C
:10053400751CFF8018C3E51C9411748094804008D6
:1005440074F0251CF51C8005D201751C00AF1C7EBF
:1005540000AC11AD121206427C007D321206548F9B
:100564001D1209361209C0801BE51964027015B208
:1005740090309009E510F58D85118B8007E511F514
:100584008D85128BD28ED007D006D005D004D0032F
:10059400D002D001D000D0D0D082D083D0F0D0E02F
:0105A4003224
:10043800E5196401705BF50A85140BAC0AAD0BFE77
:100448007F06120654EF7805CEC313CE13D8F98E63
:100458002F640AF530C3E49530F511E4952FF510B3
:10046800751100851512E4F51CF51DC2D51209B1E8
:100478007F901209361209C020D5F07F4012093644
:100488001209C020D5E57F911209361209C020D57E
:10049800DAE51964027054AF16FE7C037DE8120693
:1004A800427C00EF2517F50BEC3EF50AFCAD0B7E00
:1004B800277F10120654AD187C00120642AB07AA1B
:1004C80006AC0AAD0B7E277F10120654C3746495E0
:1004D80018FDE49400FC120642C3E49BF511E49A6B
:0B04E800F510C3E49FF512E49EF5112F
:0104F30022E6
:10083900E56A640F7027E5696401700BE56E75F070
:100849000AA4256FF51422E56E75F00AA4FFE56D7B
:1008590075F064A42F256F856C16F51722E5696478
:1008690001700BE56E75F00AA4256FF51522E56E8A
:0808790075F00AA4256FF518C3
:010881002254
:10025E00C3E51E940474809480500302034DE5663A
:10026E00640F70047D0180027D00E56964027004F4
:10027E007C0180027C00EC5D603FE51E6404702F03
:10028E00EF64014E701F7468251EF876017D05ED32
:10029E00C3940874809480400302034D74682DF853
:1002AE00E4F60D80EAEF4E600302034D020346E5CD
:1002BE006C600302034D020346E51E64067054E5AE
:1002CE0066640A70047D0180027D00E51964027087
:1002DE00047C0180027C00EC5D6014C3EF9402EE9E
:1002EE009400405BD3EF9407EE940050528049C3C4
:1002FE00EF9401EE9400400AEF9405EE9400500244
:10030E008036EF64054E70377468251EF8A607E434
:10031E00F56F22E566640A70047D0180027D00E5BA
:10032E0019640170047C0180027C00EC5D6009E5BB
:0F033E006E64057003F56F227468251EF8A6071C
:01034D00228D
:10034E0075A0F07F0512098785A00C75A00F7F059B
:10035E00120987AFA0EF420CE50CF4700302042DD6
:10036E00AFA0EF640F70F9E50C1206A9042577040F
:10037E00057B03E57D03C57E041DB703FDBB03DDD1
:10038E00BD03BDBE0415D703F5DB03D5DD03B5DE16
:10039E00040DE703EDEB03CDED03AEEE00000433E9
:1003AE00E4F50AF50B807E750A00750B01807675F3
:1003BE000A00750B02806E750A00750B0380667558
:1003CE000A00750B04805E750A00750B0580567564
:1003DE000A00750B06804E750A00750B0780467570
:1003EE000A00750B0A803E750A00750B088036757B
:1003FE000A00750B09802E750A00750B1480267580
:10040E000A00750B0C801E750A00750B0D80167593
:10041E000A00750B0E800E750A00750B0F8006759F
:09042E000A00750BFFAE0AAF0BCA
:0104370022A2
:1007E200C2D51209B17FA01209361209C020D5F074
:1007F200E4FF1209361209C020D5E51209018F0A59
:10080200120969E50A64557027751355750B01C302
:10081200E50B940874809480501112096912090141
:100822007413250BF8A607050B80E412000E800353
:0608320012088212099D6C
:01083800229D
:10088200C2D51209B17FA01209361209C020D5F0D3
:10089200E4FF1209361209C020D5E57FA1120936FC
:1008A2001209C020D5DAE4F50CC3E50C9408748073
:1008B200948050117413250CF8E6FF1209361209C0
:0808C200C0050C80E402099D51
:030000000206CF26
:0C06CF00787FE4F6D8FD758172020716F2
:0F09B100D2B6D2B41209CFC2B41209D5C2B6223F
:10099D00C2B6C2B41209D5D2B61209D5D2B4120953
:0409AD00CFC2B422DF
:10096900C2B4D2B61209D530B40FC3E50C94FF74E2
:0E0979008094805004050C80EEC2B60209D5B1
:0C000E00D2B4D2B61209D5C2B6C2B422D8
:0F09C000D2B4D2B6C2D530B402D2D5C2B600225C
:100936008F0EE4F50DC3E50D94087480948050196C
:10094600E50E25E0F50EC2B61209D592B41209D508
:10095600D2B61209D5050D80DCC2B61209D5D2B4BD
:030966000209D5AE
:10090100C2B61209D5D2B4E4F50CC3E50C9408744F
:10091100809480501AD2B61209D5E50D25E0FFA2C8
:10092100B4E4334FF50DC2B61209D5050C80DB12C4
:0409310009D5AF0D28
:01093500229F
:0509D5000000000022FB
:0609CF0000000000002200
:1006DB0002001EE493A3F8E493A34003F68001F217
:1006EB0008DFF48029E493A3F85407240CC8C33320
:1006FB00C4540F4420C8834004F456800146F6DFEF
:10070B00E4800B01020408102040809008CAE47EAC
:10071B00019360BCA3FF543F30E509541FFEE493E3
:10072B00A360010ECF54C025E060A840B8E493A3AA
:10073B00FAE493A3F8E493A3C8C582C8CAC583CAD5
:10074B00F0A3C8C582C8CAC583CADFE9DEE780BE8D
:0109000000F6
:10064200EF8DF0A4A8F0CF8CF0A428CE8DF0A42ECC
:02065200FE2286
:10065400BC000BBE0029EF8DF084FFADF022E4CC8A
:10066400F875F008EF2FFFEE33FEEC33FCEE9DEC53
:10067400984005FCEE9DFE0FD5F0E9E4CEFD22ED99
:10068400F8F5F0EE8420D21CFEADF075F008EF2FE3
:10069400FFED33FD4007985006D5F0F222C398FDD4
:0506A4000FD5F0EA2271
:1006A900D083D082F8E4937012740193700DA3A3E0
:1006B90093F8740193F5828883E4737402936860F4
:0606C900EFA3A3A380DFF4
:00000001FF
