:0810A500FEFDFBF7EFDFBF7F4A
:100FCD000834101010101010101011213F065B4F37
:100FDD00666D7D077F6F777C395E797100013E000C
:070FED00013D630232000028
:100B88008F34ED640F4C704A75360FE50E24FE6005
:100B98001C046003020C1C75371075381075391069
:100BA800E50975F00A8485F03BE509806175371021
:100BB800850B38E50C75F06484F539E50C75F00A99
:100BC8008475F00A8485F03AE50C75F00A8485F09E
:100BD8003B22ED640A4C703C75360AE50E24FE6033
:100BE80019047030753710753810753910E50A75A5
:100BF800F00A8485F03BE50A8014753710753810C3
:100C0800753910E50D75F00A8485F03BE50D75F032
:050C18000A84F53A22F8
:10105100AD071FED600FE4FEEEC394FF7480948032
:0510610050EE0E80F3CB
:011066002267
:03000B00020C1DC7
:0F0C1D00C0E0C083C082C0D075D000C000C00747
:100C2C00753FFEC28C758CFE758A0C0533E53370EE
:100C3C000205327511FF643C453270096311FFF5F2
:100C4C0032F5338009E533453270037511FF743486
:100C5C00253EF8E6FFD293D294300012E518B53E4B
:100C6C000D74212FF8E6F580E51152808007742170
:100C7C002FF8E6F580C294D295E53E9010A593F539
:100C8C0080C295C293053EE53E64087002F53ED2E3
:010C9C008CCB
:0D0C9D00D007D000D0D0D082D083D0E0327C
:0B0FF4000908553214003232020000E0
:10080000D2AFD2A9D2ABD2B9C2BB758CFE758A0C5D
:10081000D28CD28E120F077D0F7C00E4FF120B8862
:10082000850E35C200120DC08E428F43E543640C25
:100830004542702A300014300424120D367D0F7C9E
:1008400000E4FF120B887518638013D200850E3503
:100850007D0F7C007F05120B88D203751801E543DC
:10086000640D45427029300313E50E24FE60080430
:10087000701D750E028018750E01801375180174B5
:10088000342518F876017D0F7C007F05120B88E572
:1008900043640E4542600302097620000302097496
:1008A000E500640F4500600875000075000F8006C4
:1008B00075000075000AE543646E4542702AAF0E6C
:1008C000FEEF6401700FD3E51894067480948040A5
:1008D0000415188013EF64024E700DD3E5189404CC
:1008E0007480948040021518E5436478454270583E
:1008F000AF0EFEEF64017026AD18FCC3ED940674D4
:100900008094805002800EE53A640570028006ED06
:1009100064074C7005751806802E0518802AEF6450
:10092000024E7024AF18FEC3EF940474809480507C
:1009300002800EE538640170028006EF64074E7095
:100940000575180480020518C3E542648094804050
:1009500014D3E5439408E542648094805007AF4384
:10096000AE421209ACE543641045427009D204124C
:100970000EB18002D200E543640F454260030208D5
:1009800025E535650E7003020825E50E6401700348
:1009900012106785350EC2AF120F537D0F7C00E435
:0C09A000FF120B88120D36D2AF020825A2
:03001B00020AA036
:100AA000C0E0C0F0C083C082C0D075D000C000C01C
:0D0AB00001C002C003C004C005C006C0079D
:100ABD00C28EE50E64016003020B4DE513F58D85C5
:100ACD00148B30011FAF127E00C3EF94F07480942D
:100ADD008050047410801AEF64F04E701F7512FF71
:100AED00C2018018D3E5129410748094804008746C
:100AFD00F02512F5128005751200D201AF127E009D
:100B0D00AC15AD16120E4A7C007D32120E5C8F179D
:100B1D00C20212107B7F9012100012108A2002F078
:100B2D00E4FF12100012108A2002E57F91121000CE
:100B3D0012108A2002DAAF1712100012108A801ECE
:100B4D00E50E64027018120D36B290309009E5135F
:100B5D00F58D85148B8007E515F58D85168BD28E59
:100B6D00D007D006D005D004D003D002D001D000DC
:0B0B7D00D0D0D082D083D0F0D0E03286
:0F107B00D2B6D2B41210ADC2B41210B3C2B622A4
:10106700C2B6C2B41210B3D2B61210B3D2B41210B1
:04107700ADC2B42230
:10103300C2B4D2B61210B330B40FC3E54694FF74F2
:0E1043008094805004054680EEC2B60210B3C1
:0C109900D2B4D2B61210B3C2B6C2B42258
:0F108A00D2B4D2B6C2D530B402D2D5C2B600228B
:101000008F48E4F547C3E5479408748094805019ED
:10101000E54825E0F548C2B61210B392B41210B3F9
:10102000D2B61210B3054780DCC2B61210B3D2B4E8
:031030000210B3F8
:100F9800C2B61210B3D2B4E4F546C3E54694087459
:100FA800809480501AD2B61210B3E54725E0FFA20C
:100FB800B4E4334FF547C2B61210B3054680DB12CE
:040FC80010B3AF476C
:010FCC002202
:0510B300000000002216
:0610AD000000000000221B
:100D3600AF0E7E00EF6401701D74068509F084C451
:100D4600135407640AFDC3E49DF514E49400F513F7
:100D5600751500850A16EF64024E705DAF0BFE7CBA
:100D6600037DE8120E4A7C00EF250CFFEC3EAB0734
:100D7600FA7E007F04AD03FC120E5CAD0D7C001202
:100D86000E4AEF640AF5828E83AC02AD037E007FC5
:100D960004120E5CC37464950DFDE49400FC120EFF
:100DA6004AEF640AFFC3E49582F514E49583F513CC
:090DB600C3E49FF516E49EF51557
:010DBF002211
:100EB100AF0E7E00EF6401700BE53A75F00AA425D0
:100EC1003BF50922EF64024E7029E500640F70239F
:100ED100E53975F064A4FFE53875F0E8A42FFFE566
:100EE1003A75F00AA42F253BFB7A00EAF50FAF0310
:100EF1008F1022E53A75F00AA4253BFFE53525E080
:050F01002408F8A6071A
:010F060022C8
:1009AC00C3E5189404748094805003020A9FE500F8
:1009BC00640F70047D0180027D00E50E64027004FA
:1009CC007C0180027C00EC5D6043E51864047030AF
:1009DC00EF64014E7021AD0774342518F8A6057D1F
:1009EC0005EDC39408748094804003020A9F74340C
:1009FC002DF8E4F60D80EAEF4E6003020A9F804169
:100A0C00E5386003020A9F753810020A98E51864ED
:100A1C00067054E500640A70047D0180027D00E5D7
:100A2C000E640270047C0180027C00EC5D6014C3D7
:100A3C00EF9402EE9400405BD3EF9407EE940050D9
:100A4C00528049C3EF9401EE9400400AEF9405EEF6
:100A5C00940050028036EF64054E703774342518BC
:100A6C00F8A607E4F53B22E500640A70047D0180DA
:100A7C00027D00E50E640170047C0180027C00ECB8
:100A8C005D6009E53A64057003F53B227434251862
:030A9C00F8A607B2
:010A9F002234
:100F0700C2D512107B7FA012100012108A20D5F0D4
:100F1700E4FF12100012108A20D5E5120F988F44B3
:100F2700121033E5446455701F754501C3E54594B8
:100F370008748094805014120F9874082545F8A6F9
:0B0F47000712108A054580E4120F53CA
:010F5200227C
:100F5300C2D512107B7FA012100012108A20D5F088
:100F6300E4FF12100012108A20D5E57FA1121000B1
:100F730012108AE4F546C3E54694087480948050C1
:100F83001174082546F8E6FF12100012108A054670
:050F930080E40210677C
:100DC00075A0F0AFA0EF64F060597F0A121051AF28
:100DD000A0EF64F0604DAFA0EF2490601B24C060D2
:100DE0001224E0600924F07012E4F544800D75448B
:100DF000018008754402800375440375A00F7F0AC3
:100E0000121051AFA0EF24F9601324FC600B24FEF4
:100E1000600314800E7404800674088002740C252C
:100E200044F544E54424F7600F1460111460132462
:100E300003701275446E800D75440880087544096E
:090E40008003754478AF447E0084
:010E49002286
:03000000020CAA45
:0C0CAA00787FE4F6D8FD758148020CF15B
:100CB600020800E493A3F8E493A34003F68001F24C
:100CC60008DFF48029E493A3F85407240CC8C3333F
:100CD600C4540F4420C8834004F456800146F6DF0E
:100CE600E4800B0102040810204080900FCDE47EC2
:100CF600019360BCA3FF543F30E509541FFEE49303
:100D0600A360010ECF54C025E060A840B8E493A3C9
:100D1600FAE493A3F8E493A3C8C582C8CAC583CAF4
:100D2600F0A3C8C582C8CAC583CADFE9DEE780BEAC
:010FFF0000F1
:100E4A00EF8DF0A4A8F0CF8CF0A428CE8DF0A42EBC
:020E5A00FE2276
:100E5C00BC000BBE0029EF8DF084FFADF022E4CC7A
:100E6C00F875F008EF2FFFEE33FEEC33FCEE9DEC43
:100E7C00984005FCEE9DFE0FD5F0E9E4CEFD22ED89
:100E8C00F8F5F0EE8420D21CFEADF075F008EF2FD3
:100E9C00FFED33FD4007985006D5F0F222C398FDC4
:050EAC000FD5F0EA2261
:00000001FF
