:080DBD00FEFDFBF7EFDFBF7F35
:100D23000834101010101010101011213F065B4FE3
:100D3300666D7D077F6F777C395E797100013E00B8
:070D4300013D6302320000D4
:100AF4008F34850E35ED640F4C7038E50E24FE609E
:100B04001004705CE50975F00A8485F03BE5098002
:100B140049850B38E50C75F06484F537E50C75F000
:100B24000A8475F00A8485F036E50C75F00A84852C
:100B3400F03522ED640A4C7027E50E24FE601004A3
:100B4400701EE50A75F00A8485F03BE50A800BE522
:100B54000D75F00A8485F03BE50D75F00A84F53ACD
:010B6400226E
:100D6900AD071FED600FE4FEEEC394FF748094801D
:050D790050EE0E80F3B6
:010D7E002252
:03000B000209EEF9
:0F09EE00C0E0C083C082C0D075D000C000C00779
:1009FD00753FFEC28C758CFE758A0C0533E5337020
:100A0D00020532B4580AE532B402056311FF8009BC
:100A1D00E533453270037511FFE518F4600EE53EC0
:100A2D00B518092434F8E65511FF80077434253EB6
:100A3D00F8E6FFD293D29474212FF8E6F580C29494
:100A4D00D295E53E900DBD93F580C295C293053EBE
:0A0A5D00E53E64087002F53ED28CFD
:0D0A6700D007D000D0D0D082D083D0E032B4
:100A7400D2AFD2A9D2ABD2B9C2BB758CFE758A0CE7
:100A8400D28CD28E120C347D0F7C00E4FF120AF457
:100A9400120B658E428F43E543640C4542701E3051
:100AA4000010300403120963C2007D0F7C00E4FFD0
:100AB4008008D2007D0F7C007F05120AF4E54364B0
:100AC4000D454270BF300313E50E24FE6008047028
:100AD400B3750E0280AE750E0180A97518017434C9
:100AE4002518F876017D0F7C007F05120AF48094A6
:03001B00020800D8
:10080000C0E0C0F0C083C082C0D075D000C000C0BE
:0D08100001C002C003C004C005C006C0073F
:10081D00C28EE50E6401707AE513F58D85148B306B
:10082D00011FAF127E00C3EF94F0748094805004CA
:10083D007410801AEF64F04E701F7512FFC20180A4
:10084D0018D3E512941074809480400874F025122A
:10085D00F5128005751200D201AF127E00AC15ADF8
:10086D0016120BCD7C007D32120BDF8F17C20212D8
:10087D000D937F90120CF0120DA22002F0E4FF12E6
:10088D000CF0120DA22002E5AF17120CF0120DA202
:10089D00801BE50E64027015B290309009E513F5DA
:0F08AD008D85148B8007E515F58D85168BD28E02
:1008BC00D007D006D005D004D003D002D001D00090
:0B08CC00D0D0D082D083D0F0D0E0323A
:0F0D9300D2B6D2B4120DC5C2B4120DCBC2B62265
:100D7F00C2B6C2B4120DCBD2B6120DCBD2B4120D75
:040D8F00C5C2B42203
:100D4B00C2B4D2B6120DCB30B40FC3E54694FF74C8
:0E0D5B008094805004054680EEC2B6020DCB97
:0C0DB100D2B4D2B6120DCBC2B6C2B4222E
:0F0DA200D2B4D2B6C2D530B402D2D5C2B6002276
:100CF0008F48E4F547C3E547940874809480501901
:100D0000E54825E0F548C2B6120DCB92B4120DCBE2
:100D1000D2B6120DCB054780DCC2B6120DCBD2B4D1
:030D2000020DCBF6
:100CBB00C2B6120DCBD2B4E4F546C3E54694087424
:100CCB00809480501AD2B6120DCBE54725E0FFA2D7
:100CDB00B4E4334FF547C2B6120DCB054680DB1299
:040CEB000DCBAF4737
:010CEF0022E2
:050DCB00000000002201
:060DC50000000000002206
:10096300AF0E7E00EF6401701D74068509F084C428
:10097300135407640AFDC3E49DF514E49400F513CE
:10098300751500850A16EF64024E705EAF0BFE7C90
:10099300037DE8120BCD7C00EF250CFFEC3EAB078B
:1009A300FA7E007F04AD03FC120BDFAD0D7C001259
:1009B3000BCDEF640AF5828E83AC02AD037E007F1C
:1009C30004120BDFC37464950DFDE49400FC120B59
:1009D300CDEF640AFFC3E49582F514E49583F51320
:0A09E300C3740A9FF516E49EF51593
:0109ED0022E7
:100C3400C2D5120D937F90120CF0120DA220D5F0A4
:100C4400E4FF120CF0120DA220D5E5120CBB8F4468
:100C5400120D4BE5446455701F754501C3E5459479
:100C640008748094805014120CBB74082545F8A6AF
:0B0C740007120DA2054580E4120C8061
:010C7F002252
:100C8000C2D5120D937F90120CF0120DA220D5F058
:100C9000E4FF120CF0120DA220D5E5E4F546C3E501
:100CA00046940874809480501174082546F8E6FF35
:0A0CB000120CF0120DA2054680E4BC
:010CBA002217
:100B650075A0F0AFA0EF64F060597F0A120D69AF70
:100B7500A0EF64F0604DAFA0EF2490601B24C0602F
:100B85001224E0600924F07012E4F545800D7545E6
:100B9500018008754502800375450375A00F7F0A1E
:100BA500120D69AFA0EF24F9601324FC600B24FE3D
:100BB500600314800E7404800674088002740C258A
:070BC50045F545AF457E0038
:010BCC002206
:030000000208D71C
:0C08D700787FE4F6D8FD75814802091E08
:1008E300020A74E493A3F8E493A34003F68001F2AD
:1008F30008DFF48029E493A3F85407240CC8C33316
:10090300C4540F4420C8834004F456800146F6DFE4
:10091300E4800B0102040810204080900D23E47E44
:10092300019360BCA3FF543F30E509541FFEE493D9
:10093300A360010ECF54C025E060A840B8E493A3A0
:10094300FAE493A3F8E493A3C8C582C8CAC583CACB
:10095300F0A3C8C582C8CAC583CADFE9DEE780BE83
:010D4A0000A8
:100BCD00EF8DF0A4A8F0CF8CF0A428CE8DF0A42E3C
:020BDD00FE22F6
:100BDF00BC000BBE0029EF8DF084FFADF022E4CCFA
:100BEF00F875F008EF2FFFEE33FEEC33FCEE9DECC3
:100BFF00984005FCEE9DFE0FD5F0E9E4CEFD22ED09
:100C0F00F8F5F0EE8420D21CFEADF075F008EF2F52
:100C1F00FFED33FD4007985006D5F0F222C398FD43
:050C2F000FD5F0EA22E0
:00000001FF
