:08000300FEFDFBF7EFDFBF7FFC
:1008CC000868101010101010101012523F065B4FD9
:1008DC00666D7D077F6F777C395E797100400172A0
:0B08EC00000171630167FF026400005F
:1005A7008D668F68AF667E00EF640F704A756A0FBD
:1005B700E56924FE601C046003020643756B117530
:1005C7006C11756D11E51475F00A8485F06FE514EB
:1005D7008064756B1185166CE51775F06484F56D8D
:1005E700E51775F00A8475F00A8485F06EE51775CE
:1005F700F00A8485F06F22EF640A4E703FE51924F4
:10060700FE601C047036756A0A756B11756C11757E
:100617006D11E51575F00A8485F06FE5158017757E
:100627006A0D756B11756C11756D11E51875F00A0A
:0D0637008485F06FE51875F00A84F56E22D9
:10098900AD071FED600FE4FEEEC394FF7480948001
:0509990050EE0E80F39A
:01099E002236
:03000B0002075D8C
:0F075D00C0E0C083C082C0D075D000C000C0070C
:10076C00C28C758CFE758A0CC3E5659446E5649461
:10077C000040097564007565006367FF7468257235
:10078C00F8E6FFD293300010E51EB5720B74522FB1
:10079C00F8E65567F580800774522FF8E6F580D29D
:1007AC0094C294E57290000393F580D295C295C2E1
:1007BC00930572C3E572940874809480400375723B
:0B07CC00000565E56570020564D28C35
:0D07D700D007D000D0D0D082D083D0E03247
:0B08F7000913551932003232010000D5
:10001E00D2AFD2A9D2AB758911758CFE758A0CD26E
:10002E008CD28E1207E412043A8519697D0F7C007A
:10003E00E4FF1205A71203508E508F5120000302C9
:10004E0001BAE551640C45507026C20030040FC24F
:10005E0004C2AF12088412043AD2AF751EFF85197E
:10006E00697D0F7C00E4FF1205A77550007551FFE6
:10007E00E551640D4550702A300310E51924FE60D9
:10008E000804700F756902800A8005D203751E017F
:10009E007569017D0F7C007F051205A775500075EF
:1000AE0051FFE551640E45507023751E0220031555
:1000BE00E56A640F60047D0F80027D0A7C007F0577
:1000CE001205A78002C2037550007551FFE55164F9
:1000DE000A45507031200328E56A640F7015E569F2
:1000EE006402700FD3E51E94047480948040111541
:1000FE001E800DD3E51E9406748094804002151E5A
:10010E007550007551FFE55164144550706720031A
:10011E005EC3E51E9407748094805002051EAF6A7C
:10012E007E00EF640F701CE56964027016C3E51E55
:10013E009404748094804006E56C64017031751EE1
:10014E0004802CC3E51E9406748094805003751EA3
:10015E0006EF640D4E6009E56E64057003751E06AC
:10016E00E56A640D7009E56E64087003751E067508
:10017E0050007551FFE551640F45507007D20412BF
:10018E00083B801FD3E5519409E5509400400302CB
:10019E000043C3E55094005003020043AF51AE50EC
:1001AE0012025E7550007551FF020043751EFFE589
:1001BE0051640C45507018D2008519697D0FFC7F73
:1001CE00051205A7D203751E017550007551FFE586
:1001DE0051640D4550701F0569C3E5699403748021
:1001EE00948040037569017D0F7C00E4FF1205A722
:1001FE007550007551FFE551640E45507019E56A52
:10020E00640F60047D0F80027D0A7C00E4FF1205FE
:10021E00A77550007551FFE551640F4550600302FC
:10022E000043E5696519601FE51964017003120941
:10023E009F856919C2AF1208847D0F7C00E4FF12FE
:10024E0005A712043AD2AF7550007551FF02004354
:03001B000204F6E6
:1004F600C0E0C0F0C083C082C0D075D000C000C0CC
:1005060001C002C003C004C005C006C007C28EE514
:100516001964017054E510F58D85118B300116D3E1
:10052600E51C94EF74809480500474108014C2010A
:10053600751CFF8018C3E51C9411748094804008D4
:1005460074F0251CF51C8005D201751C00AF1C7EBD
:1005560000AC11AD121206447C007D321206568F95
:100566001D1209381209C2801BE51964027015B202
:1005760090309009E510F58D85118B8007E511F512
:100586008D85128BD28ED007D006D005D004D0032D
:10059600D002D001D000D0D0D082D083D0F0D0E02D
:0105A6003222
:10043A00E5196401705BF50A85140BAC0AAD0BFE75
:10044A007F06120656EF7805CEC313CE13D8F98E5F
:10045A002F640AF530C3E49530F511E4952FF510B1
:10046A00751100851512E4F51CF51DC2D51209B3E4
:10047A007F901209381209C220D5F07F401209383C
:10048A001209C220D5E57F911209381209C220D576
:10049A00DAE51964027054AF16FE7C037DE8120691
:1004AA00447C00EF2517F50BEC3EF50AFCAD0B7EFC
:1004BA00277F10120656AD187C00120644AB07AA15
:1004CA0006AC0AAD0B7E277F10120656C3746495DC
:1004DA0018FDE49400FC120644C3E49BF511E49A67
:0B04EA00F510C3E49FF512E49EF5112D
:0104F50022E4
:10083B00E56A640F7027E5696401700BE56E75F06E
:10084B000AA4256FF51422E56E75F00AA4FFE56D79
:10085B0075F064A42F256F856C16F51722E5696476
:10086B0001700BE56E75F00AA4256FF51522E56E88
:08087B0075F00AA4256FF518C1
:010883002252
:10025E00C3E51E940474809480500302034FE56638
:10026E00640F70047D0180027D00E56964027004F4
:10027E007C0180027C00EC5D6041E51E6404702E02
:10028E00EF64014E701F7468251EF876017D05ED32
:10029E00C3940874809480400302034F74682DF851
:1002AE00E4F60D80EAEF4E600302034F8041E56CE9
:1002BE00600302034F756C10020348E51E6406705E
:1002CE0054E566640A70047D0180027D00E51964C0
:1002DE000270047C0180027C00EC5D6014C3EF941C
:1002EE0002EE9400405BD3EF9407EE9400505280E0
:1002FE0049C3EF9401EE9400400AEF9405EE94008A
:10030E0050028036EF64054E70377468251EF8A6CD
:10031E0007E4F56F22E566640A70047D0180027DB4
:10032E0000E519640170047C0180027C00EC5D60C4
:10033E0009E56E64057003F56F227468251EF8A634
:01034E0007A7
:01034F00228B
:1003500075A0F07F0512098985A00C75A00F7F0597
:10036000120989AFA0EF420CE50CF4700302042FD0
:10037000AFA0EF640F70F9E50C1206AB0427770409
:10038000077B03E77D03C77E041FB703FFBB03DFC3
:10039000BD03BFBE0417D703F7DB03D7DD03B7DE0A
:1003A000040FE703EFEB03CFED03B0EE00000435DD
:1003B000E4F50AF50B807E750A00750B01807675F1
:1003C0000A00750B02806E750A00750B0380667556
:1003D0000A00750B04805E750A00750B0580567562
:1003E0000A00750B06804E750A00750B078046756E
:1003F0000A00750B0A803E750A00750B0880367579
:100400000A00750B09802E750A00750B148026757D
:100410000A00750B0C801E750A00750B0D80167591
:100420000A00750B0E800E750A00750B0F8006759D
:090430000A00750BFFAE0AAF0BC8
:0104390022A0
:1007E400C2D51209B37FA01209381209C220D5F06C
:1007F400E4FF1209381209C220D5E51209038F0A51
:1008040012096BE50A64557027751355750B01C3FE
:10081400E50B940874809480501112096B1209033B
:100824007413250BF8A607050B80E412000E800351
:0608340012088412099F66
:01083A00229B
:10088400C2D51209B37FA01209381209C220D5F0CB
:10089400E4FF1209381209C220D5E57FA1120938F4
:1008A4001209C220D5DAE4F50CC3E50C940874806F
:1008B400948050117413250CF8E6FF1209381209BC
:0808C400C2050C80E402099F4B
:030000000206D124
:0C06D100787FE4F6D8FD758172020718EE
:0F09B300D2B6D2B41209D1C2B41209D7C2B62239
:10099F00C2B6C2B41209D7D2B61209D7D2B412094D
:0409AF00D1C2B422DB
:10096B00C2B4D2B61209D730B40FC3E50C94FF74DE
:0E097B008094805004050C80EEC2B60209D7AD
:0C000E00D2B4D2B61209D7C2B6C2B422D6
:0F09C200D2B4D2B6C2D530B402D2D5C2B600225A
:100938008F0EE4F50DC3E50D94087480948050196A
:10094800E50E25E0F50EC2B61209D792B41209D702
:10095800D2B61209D7050D80DCC2B61209D7D2B4B7
:030968000209D7AA
:10090300C2B61209D7D2B4E4F50CC3E50C9408744B
:10091300809480501AD2B61209D7E50D25E0FFA2C4
:10092300B4E4334FF50DC2B61209D7050C80DB12C0
:0409330009D7AF0D24
:01093700229D
:0509D7000000000022F9
:0609D100000000000022FE
:1006DD0002001EE493A3F8E493A34003F68001F215
:1006ED0008DFF48029E493A3F85407240CC8C3331E
:1006FD00C4540F4420C8834004F456800146F6DFED
:10070D00E4800B01020408102040809008CCE47EA8
:10071D00019360BCA3FF543F30E509541FFEE493E1
:10072D00A360010ECF54C025E060A840B8E493A3A8
:10073D00FAE493A3F8E493A3C8C582C8CAC583CAD3
:10074D00F0A3C8C582C8CAC583CADFE9DEE780BE8B
:0109020000F4
:10064400EF8DF0A4A8F0CF8CF0A428CE8DF0A42ECA
:02065400FE2284
:10065600BC000BBE0029EF8DF084FFADF022E4CC88
:10066600F875F008EF2FFFEE33FEEC33FCEE9DEC51
:10067600984005FCEE9DFE0FD5F0E9E4CEFD22ED97
:10068600F8F5F0EE8420D21CFEADF075F008EF2FE1
:10069600FFED33FD4007985006D5F0F222C398FDD2
:0506A6000FD5F0EA226F
:1006AB00D083D082F8E4937012740193700DA3A3DE
:1006BB0093F8740193F5828883E4737402936860F2
:0606CB00EFA3A3A380DFF2
:00000001FF
