:080DDC00FEFDFBF7EFDFBF7F16
:100D42000834101010101010101011213F065B4FC4
:100D5200666D7D077F6F777C395E797100013E0099
:070D6200013D6302320000B5
:100B13008F34850E35ED640F4C7038E50E24FE607E
:100B23001004705CE50975F00A8485F03BE50980E3
:100B330049850B38E50C75F06484F537E50C75F0E1
:100B43000A8475F00A8485F036E50C75F00A84850D
:100B5300F03522ED640A4C7027E50E24FE60100484
:100B6300701EE50A75F00A8485F03BE50A800BE503
:100B73000D75F00A8485F03BE50D75F00A84F53AAE
:010B8300224F
:100D8800AD071FED600FE4FEEEC394FF74809480FE
:050D980050EE0E80F397
:010D9D002233
:03000B00020A8D59
:0F0A8D00C0E0C083C082C0D075D000C000C007D9
:100A9C00753FFEC28C758CFE758A0C0533E5337080
:100AAC00020532B4580AE532B402056311FF80091D
:100ABC00E533453270037511FFE518F4600EE53E21
:100ACC00B518092434F8E65511FF80077434253E17
:100ADC00F8E6FFD293D29474212FF8E6F580C294F5
:100AEC00D295E53E900DDC93F580C295C293053E00
:0A0AFC00E53E64087002F53ED28C5E
:0D0B0600D007D000D0D0D082D083D0E03214
:1008D700D2AFD2A9D2ABD2B9C2BB758CFE758A0C86
:1008E700D28CD28E120C537D0F7C00E4FF120B13B7
:1008F700120B848E428F43E543640C4542701E30D1
:100907000010300403120A02C2007D0F7C00E4FFCE
:100917008008D2007D0F7C007F05120B13E543642E
:100927000D45427029300313E50E24FE600804705C
:100937001D750E028018750E018013751801743429
:100947002518F876017D0F7C007F05120B13E54310
:10095700640E4542708E200311E500640F45006068
:0F0967008375000075000F0208EBD2030208EB46
:03001B00020800D8
:10080000C0E0C0F0C083C082C0D075D000C000C0BE
:0D08100001C002C003C004C005C006C0073F
:10081D00C28EE50E6401707AE513F58D85148B306B
:10082D00011FAF127E00C3EF94F0748094805004CA
:10083D007410801AEF64F04E701F7512FFC20180A4
:10084D0018D3E512941074809480400874F025122A
:10085D00F5128005751200D201AF127E00AC15ADF8
:10086D0016120BEC7C007D32120BFE8F17C202129A
:10087D000DB27F90120D0F120DC12002F0E4FF1288
:10088D000D0F120DC12002E5AF17120D0F120DC184
:10089D00801BE50E64027015B290309009E513F5DA
:0F08AD008D85148B8007E515F58D85168BD28E02
:1008BC00D007D006D005D004D003D002D001D00090
:0B08CC00D0D0D082D083D0F0D0E0323A
:0F0DB200D2B6D2B4120DE4C2B4120DEAC2B62208
:100D9E00C2B6C2B4120DEAD2B6120DEAD2B4120D18
:040DAE00E4C2B422C5
:100D6A00C2B4D2B6120DEA30B40FC3E54694FF748A
:0E0D7A008094805004054680EEC2B6020DEA59
:0C0DD000D2B4D2B6120DEAC2B6C2B422F0
:0F0DC100D2B4D2B6C2D530B402D2D5C2B6002257
:100D0F008F48E4F547C3E5479408748094805019E1
:100D1F00E54825E0F548C2B6120DEA92B4120DEA85
:100D2F00D2B6120DEA054780DCC2B6120DEAD2B474
:030D3F00020DEAB8
:100CDA00C2B6120DEAD2B4E4F546C3E546940874E6
:100CEA00809480501AD2B6120DEAE54725E0FFA299
:100CFA00B4E4334FF547C2B6120DEA054680DB125B
:040D0A000DEAAF47F8
:010D0E0022C2
:050DEA000000000022E2
:060DE400000000000022E7
:100A0200AF0E7E00EF6401701D74068509F084C488
:100A1200135407640AFDC3E49DF514E49400F5132E
:100A2200751500850A16EF64024E705EAF0BFE7CF0
:100A3200037DE8120BEC7C00EF250CFFEC3EAB07CC
:100A4200FA7E007F04AD03FC120BFEAD0D7C00129A
:100A52000BECEF640AF5828E83AC02AD037E007F5D
:100A620004120BFEC37464950DFDE49400FC120B9A
:100A7200ECEF640AFFC3E49582F514E49583F51361
:0A0A8200C3740A9FF516E49EF515F3
:010A8C002247
:100C5300C2D5120DB27F90120D0F120DC120D5F027
:100C6300E4FF120D0F120DC120D5E5120CDA8F44EB
:100C7300120D6AE5446455701F754501C3E545943B
:100C830008748094805014120CDA74082545F8A671
:0B0C930007120DC1054580E4120C9F04
:010C9E002233
:100C9F00C2D5120DB27F90120D0F120DC120D5F0DB
:100CAF00E4FF120D0F120DC120D5E5E4F546C3E5A3
:100CBF0046940874809480501174082546F8E6FF16
:0A0CCF00120D0F120DC1054680E45E
:010CD90022F8
:100B840075A0F0AFA0EF64F060597F0A120D88AF32
:100B9400A0EF64F0604DAFA0EF2490601B24C06010
:100BA4001224E0600924F07012E4F545800D7545C7
:100BB400018008754502800375450375A00F7F0AFF
:100BC400120D88AFA0EF24F9601324FC600B24FEFF
:100BD400600314800E7404800674088002740C256B
:070BE40045F545AF457E0019
:010BEB0022E7
:030000000209767C
:0C097600787FE4F6D8FD7581480209BDC9
:100982000208D7E493A3F8E493A34003F68001F2AC
:1009920008DFF48029E493A3F85407240CC8C33376
:1009A200C4540F4420C8834004F456800146F6DF45
:1009B200E4800B0102040810204080900D42E47E86
:1009C200019360BCA3FF543F30E509541FFEE4933A
:1009D200A360010ECF54C025E060A840B8E493A301
:1009E200FAE493A3F8E493A3C8C582C8CAC583CA2C
:1009F200F0A3C8C582C8CAC583CADFE9DEE780BEE4
:010D69000089
:100BEC00EF8DF0A4A8F0CF8CF0A428CE8DF0A42E1D
:020BFC00FE22D7
:100BFE00BC000BBE0029EF8DF084FFADF022E4CCDB
:100C0E00F875F008EF2FFFEE33FEEC33FCEE9DECA3
:100C1E00984005FCEE9DFE0FD5F0E9E4CEFD22EDE9
:100C2E00F8F5F0EE8420D21CFEADF075F008EF2F33
:100C3E00FFED33FD4007985006D5F0F222C398FD24
:050C4E000FD5F0EA22C1
:00000001FF
