:08000300FEFDFBF7EFDFBF7FFC
:10091D000867101010101010101012513F065B4F89
:10092D00666D7D077F6F777C395E7971004001714F
:0B093D00000170630166FF0263000010
:1005D7008D658F67AF657E00EF640F704A75690F91
:1005E700E56824FE601C046003020673756A1175D2
:1005F7006B11756C11E51475F00A8485F06EE514BE
:100607008064756A1185166BE51775F06484F56C5F
:10061700E51775F00A8475F00A8485F06DE517759E
:10062700F00A8485F06E22EF640A4E703FE51924C4
:10063700FE601C04703675690A756A11756B117551
:100647006C11E51575F00A8485F06EE51580177550
:10065700690D756A11756B11756C11E51875F00ADE
:0D0667008485F06EE51875F00A84F56D22AB
:1009DA00AD071FED600FE4FEEEC394FF74809480B0
:0509EA0050EE0E80F349
:0109EF0022E5
:03000B0002078D5C
:0F078D00C0E0C083C082C0D075D000C000C007DC
:10079C00C28C758CFE758A0CC3E564943CE563943D
:1007AC000040097563007564006366FF746725710A
:1007BC00F8E6FFD293300010E51EB5710B74512F83
:1007CC00F8E65566F580800774512FF8E6F580D26F
:1007DC0094C294E57190000393F580D295C295C2B2
:1007EC00930571C3E571940874809480400375710E
:0B07FC00000564E56470020563D28C08
:0D080700D007D000D0D0D082D083D0E03216
:0B094800091355193200323201000083
:10001E00D2AFD2A9D2AB758911758CFE758A0CD26E
:10002E008CD28E12087E1203B98519687D0F7C0062
:10003E00E4FF1205D775A0F07F051209DA85A00A34
:10004E0075A00F7F051209DAAFA0EF420AE50AF498
:10005E0070030200F3AFA0EF640F70F9E50A120609
:10006E00DB00EE7700DA7B00C67D00B27E00E9B7DA
:10007E0000D5BB00C1BD00ADBE00E4D700D0DB0093
:10008E00BCDD00A8DE00DFE700CBEB00B7ED00A380
:10009E00EE000000F6E4F550804E75500180497573
:1000AE0050028044755003803F755004803A75505D
:1000BE000580357550068030755007802B75500AB7
:1000CE0080267550088021755009801C755014804B
:1000DE001775500C801275500D800D75500E8008DE
:1000EE0075500F80037550FF200003020235E55056
:1000FE00640C7023C20030040FC204C2AF1208D5C4
:10010E001203B9D2AF751EFF8519687D0F7C00E40E
:10011E00FF1205D77550FFE550640D7027300310A0
:10012E00E51924FE600804700F756802800A8005C8
:10013E00D203751E017568017D0F7C007F051205C7
:10014E00D77550FFE550640E7020751E0220031502
:10015E00E569640F60047D0F80027D0A7C007F05D7
:10016E001205D78002C2037550FFE550640A702E47
:10017E00200328E569640F7015E5686402700FD3DB
:10018E00E51E9404748094804011151E800DD3E5F5
:10019E001E9406748094804002151E7550FFE55023
:1001AE006414705220034CAF69FEEF640F701EE5AD
:1001BE006864027018D3E51E940474809480500213
:1001CE008006E56B6401702B751E048026D3E51E38
:1001DE0094067480948050028012E51964017011A7
:1001EE00EF640A4E700BE56D64057005751E068092
:1001FE0002051E7550FFE550640F7007D2041208F9
:10020E0014801EAF507E00D3EF940974809480400A
:10021E0003020043C3748094805003020043120211
:10022E00C57550FF020043751EFFE550640C701536
:10023E00D2008519687D0FFC7F051205D7D2037594
:10024E001E017550FFE550640D701C0568C3E5680E
:10025E0094037480948040037568017D0F7C00E4E4
:10026E00FF1205D77550FFE550640E7016E56964F0
:10027E000F60047D0F80027D0A7C00E4FF1205D71B
:10028E007550FFE550640F6003020043E568651981
:10029E00601FE519640170031209F0856819C2AF79
:1002AE001208D57D0F7C00E4FF1205D71203B9D2D8
:0702BE00AF7550FF02004381
:03001B0002047567
:10047500C0E0C0F0C083C082C0D075D000C000C04D
:1004850001C002C003C004C005C006C007C28EE596
:100495001964017054E510F58D85118B300116D363
:1004A500E51C94EF74809480500474108014C2018C
:1004B500751CFF8018C3E51C941174809480400856
:1004C50074F0251CF51C8005D201751C00AF1C7E3F
:1004D50000AC11AD121206747C007D321206868FB7
:1004E5001D120989120A13801BE51964027015B2E1
:1004F50090309009E510F58D85118B8007E511F594
:100505008D85128BD28ED007D006D005D004D003AE
:10051500D002D001D000D0D0D082D083D0F0D0E0AE
:0105250032A3
:1003B900E5196401705BF50B85140CAC0BAD0CFEF3
:1003C9007F06120686EF7805CEC313CE13D8F98EB1
:1003D9002F640AF530C3E49530F511E4952FF51033
:1003E900751100851512E4F51CF51DC2D5120A0414
:1003F9007F90120989120A1320D5F07F40120989CA
:10040900120A1320D5E57F91120989120A1320D502
:10041900DAE51964027054AF16FE7C037DE8120612
:10042900747C00EF2517F50CEC3EF50BFCAD0C7E4A
:10043900277F10120686AD187C00120674AB07AA36
:1004490006AC0BAD0C7E277F10120686C37464952B
:1004590018FDE49400FC120674C3E49BF511E49AB8
:0B046900F510C3E49FF512E49EF511AE
:010474002265
:10081400E569640F703AE56864017011E56D75F07F
:100824000AA4256EFFE56825E024128049E56C756D
:10083400F064A4FFE56B75F0E8A42FFFE56D75F097
:100844000AA42F256EFB7A00EAF516AF038F172250
:10085400E56864017011E56D75F00AA4256EFFE585
:100864006825E02413800FE56D75F00AA4256EFF5A
:09087400E56825E02414F8A6074C
:01087D002258
:1002C500C3E51E94047480948050030203B8E56569
:1002D500640F70047D0180027D00E51964027004DD
:1002E5007C0180027C00EC5D6043E51E6404703097
:1002F500EF64014E7021AD077467251EF8A6057DD4
:1003050005EDC394087480948040030203B87467B4
:100315002DF8E4F60D80EAEF4E60030203B8804144
:10032500E56B60030203B8756B100203B1E51E644B
:10033500067054E565640A70047D0180027D00E560
:1003450019640270047C0180027C00EC5D6014C3BA
:10035500EF9402EE9400405BD3EF9407EE940050C7
:10036500528049C3EF9401EE9400400AEF9405EEE4
:10037500940050028036EF64054E70377467251E71
:10038500F8A607E4F56E22E565640A70047D018030
:10039500027D00E519640170047C0180027C00EC9B
:1003A5005D6009E56D64057003F56E227467251EB1
:0303B500F8A607A0
:0103B8002222
:10087E00C2D5120A047FA0120989120A1320D5F0DC
:10088E00E4FF120989120A1320D5E51209548F0BC1
:10089E001209BCE50B64557027751355750C01C311
:1008AE00E50C94087480948050111209BC120954FE
:1008BE007413250CF8A607050C80E412000E8003B5
:0608CE001208D51209F02A
:0108D4002201
:1008D500C2D5120A047FA0120989120A1320D5F085
:1008E500E4FF120989120A1320D5E57FA1120989AF
:1008F500120A1320D5DAE4F50DC3E50D94087480CA
:10090500948050117413250DF8E6FF120989120A17
:0809150013050D80E40209F056
:1005260075A0F07F051209DA85A02175A00F7F0559
:100536001209DAAFA0EF4221E521F470030205D4D7
:10054600AFA0EF640F70F9E5211206DB05D1770540
:10055600BD7B05A97D05957E05CCB705B8BB05A471
:10056600BD0590BE05C7D705B3DB059FDD058BDE50
:1005760005C2E705AEEB059AED0586EE000005D44B
:10058600E4F52280497522018044752202803F7578
:100596002203803A75220480357522058030752243
:1005A60006802B752207802675220A80217522086F
:1005B600801C7522098017752214801275220C8002
:1005C6000D75220D800875220E800375220FAF224D
:0105D6002202
:03000000020701F3
:0C070100787FE4F6D8FD7581710207488E
:0F0A0400D2B6D2B4120A22C2B4120A28C2B62243
:1009F000C2B6C2B4120A28D2B6120A28D2B4120A57
:040A000022C2B42238
:1009BC00C2B4D2B6120A2830B40FC3E50D94FF743A
:0E09CC008094805004050D80EEC2B6020A2809
:0C000E00D2B4D2B6120A28C2B6C2B42284
:0F0A1300D2B4D2B6C2D530B402D2D5C2B6002208
:100989008F0FE4F50EC3E50E940874809480501916
:10099900E50F25E0F50FC2B6120A2892B4120A280B
:1009A900D2B6120A28050E80DCC2B6120A28D2B4C1
:0309B900020A2807
:10095400C2B6120A28D2B4E4F50DC3E50D940874A6
:10096400809480501AD2B6120A28E50E25E0FFA220
:10097400B4E4334FF50EC2B6120A28050D80DB121B
:040984000A28AF0E80
:01098800224C
:050A28000000000022A7
:060A2200000000000022AC
:10070D0002001EE493A3F8E493A34003F68001F2E4
:10071D0008DFF48029E493A3F85407240CC8C333ED
:10072D00C4540F4420C8834004F456800146F6DFBC
:10073D00E4800B010204081020408090091DE47E26
:10074D00019360BCA3FF543F30E509541FFEE493B1
:10075D00A360010ECF54C025E060A840B8E493A378
:10076D00FAE493A3F8E493A3C8C582C8CAC583CAA3
:10077D00F0A3C8C582C8CAC583CADFE9DEE780BE5B
:0109530000A3
:10067400EF8DF0A4A8F0CF8CF0A428CE8DF0A42E9A
:02068400FE2254
:10068600BC000BBE0029EF8DF084FFADF022E4CC58
:10069600F875F008EF2FFFEE33FEEC33FCEE9DEC21
:1006A600984005FCEE9DFE0FD5F0E9E4CEFD22ED67
:1006B600F8F5F0EE8420D21CFEADF075F008EF2FB1
:1006C600FFED33FD4007985006D5F0F222C398FDA2
:0506D6000FD5F0EA223F
:1006DB00D083D082F8E4937012740193700DA3A3AE
:1006EB0093F8740193F5828883E4737402936860C2
:0606FB00EFA3A3A380DFC2
:00000001FF
