:080E6F00FEFDFBF7EFDFBF7F82
:100DD5000834101010101010101011213F065B4F31
:100DE500666D7D077F6F777C395E797100013E0006
:070DF500013D630232000022
:100C0E008F34850E35ED640F4C7038E50E24FE6082
:100C1E001004705CE50975F00A8485F03BE50980E7
:100C2E0049850B38E50C75F06484F537E50C75F0E5
:100C3E000A8475F00A8485F036E50C75F00A848511
:100C4E00F03522ED640A4C7027E50E24FE60100488
:100C5E00701EE50A75F00A8485F03BE50A800BE507
:100C6E000D75F00A8485F03BE50D75F00A84F53AB2
:010C7E002253
:100E1B00AD071FED600FE4FEEEC394FF748094806A
:050E2B0050EE0E80F303
:010E3000229F
:03000B00020B885D
:0F0B8800C0E0C083C082C0D075D000C000C007DD
:100B9700753FFEC28C758CFE758A0C0533E5337084
:100BA700020532B4580AE532B402056311FF800921
:100BB700E533453270037511FFE518F4600EE53E25
:100BC700B518092434F8E65511FF80077434253E1B
:100BD700F8E6FFD293D29474212FF8E6F580C294F9
:100BE700D295E53E900E6F93F580C295C293053E70
:0A0BF700E53E64087002F53ED28C62
:0D0C0100D007D000D0D0D082D083D0E03218
:10080000D2AFD2A9D2ABD2B9C2BB758CFE758A0C5D
:10081000D28CD28E120CE67D0F7C00E4FF120C0EFF
:10082000120AFE8E428F43E543640C4542701E302F
:100830000010300403120A73C2007D0F7C00E4FF35
:100840008008D2007D0F7C007F05120C0EE543640A
:100850000D45427029300313E50E24FE6008047034
:100860001D750E028018750E018013751801743401
:100870002518F876017D0F7C007F05120C0EE543EC
:10088000640E4542708E30030302090BE500640FCD
:100890004500600675000075000FE543646E454233
:1008A000702AAF0EFEEF6401700FD3E51894067442
:1008B000809480400415188013EF64024E700DD3AD
:1008C000E51894047480948040021518E543647818
:1008D00045426003020814AF0EFEEF64017010C3BE
:1008E000E51894067480948050050518020814EFEA
:1008F00064024E6003020814C3E5189404748094E3
:100900008040030208140518020814D203020814D8
:03001B00020910C7
:10091000C0E0C0F0C083C082C0D075D000C000C0AD
:0D09200001C002C003C004C005C006C0072E
:10092D00C28EE50E6401707AE513F58D85148B305A
:10093D00011FAF127E00C3EF94F0748094805004B9
:10094D007410801AEF64F04E701F7512FFC2018093
:10095D0018D3E512941074809480400874F0251219
:10096D00F5128005751200D201AF127E00AC15ADE7
:10097D0016120C7F7C007D32120C918F17C2021261
:10098D000E457F90120DA2120E542002F0E4FF12BC
:10099D000DA2120E542002E5AF17120DA2120E5425
:1009AD00801BE50E64027015B290309009E513F5C9
:0F09BD008D85148B8007E515F58D85168BD28EF1
:1009CC00D007D006D005D004D003D002D001D0007F
:0B09DC00D0D0D082D083D0F0D0E03229
:0F0E4500D2B6D2B4120E77C2B4120E7DC2B6224C
:100E3100C2B6C2B4120E7DD2B6120E7DD2B4120E5B
:040E410077C2B4229E
:100DFD00C2B4D2B6120E7D30B40FC3E54694FF7463
:0E0E0D008094805004054680EEC2B6020E7D31
:0C0E6300D2B4D2B6120E7DC2B6C2B422C8
:0F0E5400D2B4D2B6C2D530B402D2D5C2B60022C3
:100DA2008F48E4F547C3E54794087480948050194E
:100DB200E54825E0F548C2B6120E7D92B4120E7DCA
:100DC200D2B6120E7D054780DCC2B6120E7DD2B4B9
:030DD200020E7D91
:100D6D00C2B6120E7DD2B4E4F546C3E546940874BE
:100D7D00809480501AD2B6120E7DE54725E0FFA271
:100D8D00B4E4334FF547C2B6120E7D054680DB1233
:040D9D000E7DAF47D1
:010DA100222F
:050E7D0000000000224E
:060E770000000000002253
:100A7300AF0E7E00EF6401701D74068509F084C417
:100A8300135407640AFDC3E49DF514E49400F513BD
:100A9300751500850A16EF64024E705EAF0BFE7C7F
:100AA300037DE8120C7F7C00EF250CFFEC3EAB07C7
:100AB300FA7E007F04AD03FC120C91AD0D7C001295
:100AC3000C7FEF640AF5828E83AC02AD037E007F58
:100AD30004120C91C37464950DFDE49400FC120C94
:100AE3007FEF640AFFC3E49582F514E49583F5135D
:0A0AF300C3740A9FF516E49EF51582
:010AFD0022D6
:100CE600C2D5120E457F90120DA2120E5420D5F0D9
:100CF600E4FF120DA2120E5420D5E5120D6D8F449D
:100D0600120DFDE5446455701F754501C3E5459414
:100D160008748094805014120D6D74082545F8A649
:0B0D260007120E54054580E4120D3248
:010D3100229F
:100D3200C2D5120E457F90120DA2120E5420D5F08C
:100D4200E4FF120DA2120E5420D5E5E4F546C3E5E8
:100D520046940874809480501174082546F8E6FF82
:0A0D6200120DA2120E54054680E4A3
:010D6C002264
:100AFE0075A0F0AFA0EF64F060597F0A120E1BAF25
:100B0E00A0EF64F0604DAFA0EF2490601B24C06096
:100B1E001224E0600924F07012E4F545800D75454D
:100B2E00018008754502800375450375A00F7F0A85
:100B3E00120E1BAFA0EF24F9601324FC600B24FEF1
:100B4E00600314800E7404800674088002740C25F1
:100B5E0045F545E54524F7600F1460111460132424
:100B6E0003701275456E800D754508800875450930
:090B7E008003754578AF457E0047
:010B8700224B
:030000000209E70B
:0C09E700787FE4F6D8FD758148020A2EE6
:1009F300020800E493A3F8E493A34003F68001F212
:100A030008DFF48029E493A3F85407240CC8C33304
:100A1300C4540F4420C8834004F456800146F6DFD3
:100A2300E4800B0102040810204080900DD5E47E81
:100A3300019360BCA3FF543F30E509541FFEE493C8
:100A4300A360010ECF54C025E060A840B8E493A38F
:100A5300FAE493A3F8E493A3C8C582C8CAC583CABA
:100A6300F0A3C8C582C8CAC583CADFE9DEE780BE72
:010DFC0000F6
:100C7F00EF8DF0A4A8F0CF8CF0A428CE8DF0A42E89
:020C8F00FE2243
:100C9100BC000BBE0029EF8DF084FFADF022E4CC47
:100CA100F875F008EF2FFFEE33FEEC33FCEE9DEC10
:100CB100984005FCEE9DFE0FD5F0E9E4CEFD22ED56
:100CC100F8F5F0EE8420D21CFEADF075F008EF2FA0
:100CD100FFED33FD4007985006D5F0F222C398FD91
:050CE1000FD5F0EA222E
:00000001FF
