:08000300FEFDFBF7EFDFBF7FFC
:100897000836101010101010101011213F065B4F72
:1008A700666D7D077F6F777C395E79710001400047
:0708B700013F630232000063
:1004B2008D348F36AF347E00EF640F704A75380F7B
:1004C200E50E24FE601C04600302054B75391075AD
:1004D2003A10753B10E50975F00A8485F03DE5098F
:1004E2008061753910850B3AE50C75F06484F53B33
:1004F200E50C75F00A8475F00A8485F03CE50C750C
:10050200F00A8485F03D22EF640A4E703C75380A89
:10051200E50E24FE6019047030753910753A1075B5
:100522003B10E50A75F00A8485F03DE50A801475F2
:100532003910753A10753B10E50D75F00A8485F097
:0A0542003DE50D75F00A84F53C223A
:10091B00AD071FED600FE4FEEEC394FF748094806F
:05092B0050EE0E80F308
:0109300022A4
:03000B0002066585
:0F066500C0E0C083C082C0D075D000C000C00705
:100674007541FEC28C758CFE758A0C7535FFE533A9
:10068400643C453270076335FFF532F53374362523
:1006940040F8E6FFD293300010E517B5400B742103
:1006A4002FF8E65535F580800774212FF8E6F5809C
:1006B400D294C294E54090000393F580D295C295FC
:1006C400C2930540C3E54094087480948040037548
:0C06D40040000533E53370020532D28C83
:0D06E000D007D000D0D0D082D083D0E0323F
:0B08BE0009085532140032320200001D
:10001E00D2AFD2A9D2ABD2B9C2BB758CFE758A0C47
:10002E00D28CD28E1207701206ED7D0F7C00E4FF8B
:10003E001204B2850E37C2001203FF8E448F452084
:10004E000003020194E545640C4544701CC2003067
:10005E00040BC20412081D1206ED751763850E37C8
:10006E007D0F7C00E4FF1204B2E545640D4544703B
:10007E003030031CE50E24FE6008047008750E0275
:10008E008003750E017D0F7C007F051204B280087F
:10009E00D2037517017537017D0F7C007F051204A1
:1000AE00B2E545640E4544701D751702200315E533
:1000BE0038640F60047D0F80027D0A7C007F05127C
:1000CE0004B28002C203E545640A4544702B200346
:1000DE0028E538640F7015E5376402700FD3E51705
:1000EE0094047480948040111517800DD3E51794F5
:1000FE00067480948040021517E5456414454470DB
:10010E004F20034CAF38FEEF640F701EE5376402CC
:10011E007018D3E51794047480948050028006E51D
:10012E003A6401702B7517048026D3E51794067474
:10013E0080948050028012E50E64017011EF640A03
:10014E004E700BE53C6405700575170680020517A9
:10015E00E545640F45447008D2041207C7020046F5
:10016E00D3E5459409E5446480948040030200463B
:10017E00C3E544648094805003020046AF45AE440C
:10018E00120226020046300003020046E545640CCA
:10019E0045447012D200850E377D0FFC7F05120488
:1001AE00B2D203751701E545640D45447019053744
:1001BE00C3E53794037480948040037537017D0F37
:1001CE007C00E4FF1204B2E545640E45447013E56D
:1001DE0038640F60047D0F80027D0A7C00E4FF12FC
:1001EE0004B2E545640F45446003020046E53765F9
:1001FE000E7003020046E50E64017003120931858C
:10020E00370EC2AF12081D7D0F7C00E4FF1204B240
:08021E001206EDD2AF0200460A
:03001B0002031AC3
:10031A00C0E0C0F0C083C082C0D075D000C000C0A9
:0D032A0001C002C003C004C005C006C0072A
:10033700C28EE50E640160030203C7E512F58D85E1
:10034700138B30011FAF117E00C3EF94F0748094BC
:100357008050047410801AEF64F04E701F7511FFFF
:10036700C2018018D3E511941074809480400874FA
:10037700F02511F5118005751100D201AF117E002E
:10038700AC14AD1512054C7C007D3212055E8F163C
:10039700C2021209457F901208CA1209542002F0BE
:1003A700E4FF1208CA1209542002E57F911208CA15
:1003B7001209542002DAAF161208CA120954801B18
:1003C700E50E64027015B290309009E512F58D853F
:0D03D700138B8007E514F58D85158BD28EF4
:1003E400D007D006D005D004D003D002D001D0006D
:0B03F400D0D0D082D083D0F0D0E03217
:1006ED00AF0E7E00EF6401701D74068509F084C4A1
:1006FD00135407640AFDC3E49DF513E49400F51249
:10070D00751400850A15EF64024E7056AF0BFE7C12
:10071D00037DE812054C7C00EF250CFFEC3EAB078A
:10072D00FA7E277F10AD03FC12055EAD0D7C001225
:10073D00054C8F828E83AC02AD037E277F10120590
:10074D005EC37464950DFDE49400FC12054CC3E486
:10075D009582F513E49583F512C3E49FF515E49E98
:02076D00F51481
:01076F002267
:1007C700AF0E7E00EF6401700BE53C75F00AA425BF
:1007D7003DF50922EF64024E7029E534640F70235A
:1007E700E53B75F064A4FFE53A75F0E8A42FFFE553
:1007F7003C75F00AA42F253DFB7A00EAF50FAF03FD
:100807008F1022E53C75F00AA4253DFFE53725E06A
:050817002408F8A6070B
:01081C0022B9
:10022600C3E5179404748094805003020319E534DF
:10023600640F70047D0180027D00E50E6402700487
:100246007C0180027C00EC5D6043E517640470303D
:10025600EF64014E7021AD0774362517F8A6057DAB
:1002660005EDC39408748094804003020319743624
:100276002DF8E4F60D80EAEF4E6003020319804183
:10028600E53A6003020319753A10020312E5176492
:10029600067054E534640A70047D0180027D00E531
:1002A6000E640270047C0180027C00EC5D6014C365
:1002B600EF9402EE9400405BD3EF9407EE94005067
:1002C600528049C3EF9401EE9400400AEF9405EE84
:1002D600940050028036EF64054E70377436251749
:1002E600F8A607E4F53D22E534640A70047D018032
:1002F600027D00E50E640170047C0180027C00EC46
:100306005D6009E53C64057003F53D2274362517EA
:03031600F8A6073F
:0103190022C1
:10077000C2D51209457FA01208CA12095420D5F02B
:10078000E4FF1208CA12095420D5E51208628F4608
:100790001208FDE54664557027750855754701C375
:1007A000E54794087480948050111208FD12086285
:1007B00074082547F8A607054780E412000E800359
:0607C00012081D120931B0
:0107C6002210
:10081D00C2D51209457FA01208CA12095420D5F07D
:10082D00E4FF1208CA12095420D5E57FA11208CAA7
:10083D00120954E4F548C3E5489408748094805037
:10084D001174082548F8E6FF1208CA120954054824
:05085D0080E4020931F6
:1003FF0075A0F07F0512091B85A04675A00F7F051C
:10040F0012091BAFA0EF4246E546F470030204AD9C
:10041F00AFA0EF640F70F9E5461205B304AA770495
:10042F00967B04827D046E7E04A5B70491BB047D88
:10043F00BD0469BE04A0D7048CDB0478DD0464DE40
:10044F00049BE70487EB0473ED045FEE000004AD3B
:10045F00E4F54780497547018044754702803F7531
:10046F004703803A754704803575470580307547D7
:10047F0006802B754707802675470A802175470828
:10048F00801C7547098017754714801275470C80BB
:10049F000D75470D800875470E800375470FAF47E1
:0204AF007E00CD
:0104B1002228
:030000000205D91D
:0C05D900787FE4F6D8FD75814A02062008
:0F094500D2B6D2B4120963C2B4120969C2B62283
:10093100C2B6C2B4120969D2B6120969D2B4120997
:0409410063C2B422B7
:1008FD00C2B4D2B612096930B40FC3E54894FF747F
:0E090D008094805004054880EEC2B60209694D
:0C000E00D2B4D2B6120969C2B6C2B42244
:0F095400D2B4D2B6C2D530B402D2D5C2B60022C8
:1008CA008F4AE4F549C3E549940874809480501925
:1008DA00E54A25E0F54AC2B612096992B4120969D5
:1008EA00D2B6120969054980DCC2B6120969D2B4C6
:0308FA0002096987
:10086200C2B6120969D2B4E4F548C3E548940874E3
:10087200809480501AD2B6120969E54925E0FFA298
:10088200B4E4334FF549C2B6120969054880DB1258
:040892000969AF49F8
:01089600223F
:05096900000000002267
:060963000000000000226C
:1005E50002001EE493A3F8E493A34003F68001F20E
:1005F50008DFF48029E493A3F85407240CC8C33317
:10060500C4540F4420C8834004F456800146F6DFE5
:10061500E4800B0102040810204080900897E47ED6
:10062500019360BCA3FF543F30E509541FFEE493DA
:10063500A360010ECF54C025E060A840B8E493A3A1
:10064500FAE493A3F8E493A3C8C582C8CAC583CACC
:10065500F0A3C8C582C8CAC583CADFE9DEE780BE84
:0108C900002E
:10054C00EF8DF0A4A8F0CF8CF0A428CE8DF0A42EC3
:02055C00FE227D
:10055E00BC000BBE0029EF8DF084FFADF022E4CC81
:10056E00F875F008EF2FFFEE33FEEC33FCEE9DEC4A
:10057E00984005FCEE9DFE0FD5F0E9E4CEFD22ED90
:10058E00F8F5F0EE8420D21CFEADF075F008EF2FDA
:10059E00FFED33FD4007985006D5F0F222C398FDCB
:0505AE000FD5F0EA2268
:1005B300D083D082F8E4937012740193700DA3A3D7
:1005C30093F8740193F5828883E4737402936860EB
:0605D300EFA3A3A380DFEB
:00000001FF
